{
  "_format": "hh-sol-artifact-1",
  "contractName": "BounxaEvent",
  "sourceName": "contracts/BounxaEvent.sol",
  "abi": [
    {
      "inputs": [
        {
          "internalType": "string",
          "name": "_visibility",
          "type": "string"
        },
        {
          "internalType": "uint256",
          "name": "_startTime",
          "type": "uint256"
        },
        {
          "internalType": "uint256",
          "name": "_endTime",
          "type": "uint256"
        },
        {
          "internalType": "string",
          "name": "_location",
          "type": "string"
        },
        {
          "internalType": "string",
          "name": "_description",
          "type": "string"
        },
        {
          "internalType": "string",
          "name": "_image",
          "type": "string"
        },
        {
          "internalType": "string",
          "name": "_name",
          "type": "string"
        },
        {
          "internalType": "uint256",
          "name": "_ticketPrice",
          "type": "uint256"
        },
        {
          "internalType": "uint256",
          "name": "_ticketQuantity",
          "type": "uint256"
        },
        {
          "internalType": "uint256",
          "name": "_eventId",
          "type": "uint256"
        }
      ],
      "stateMutability": "nonpayable",
      "type": "constructor"
    },
    {
      "inputs": [
        {
          "internalType": "uint256",
          "name": "quantity",
          "type": "uint256"
        }
      ],
      "name": "buyTickets",
      "outputs": [],
      "stateMutability": "payable",
      "type": "function"
    },
    {
      "inputs": [],
      "name": "cancelEvent",
      "outputs": [],
      "stateMutability": "nonpayable",
      "type": "function"
    },
    {
      "inputs": [],
      "name": "description",
      "outputs": [
        {
          "internalType": "string",
          "name": "",
          "type": "string"
        }
      ],
      "stateMutability": "view",
      "type": "function"
    },
    {
      "inputs": [],
      "name": "endTime",
      "outputs": [
        {
          "internalType": "uint256",
          "name": "",
          "type": "uint256"
        }
      ],
      "stateMutability": "view",
      "type": "function"
    },
    {
      "inputs": [],
      "name": "eventId",
      "outputs": [
        {
          "internalType": "uint256",
          "name": "",
          "type": "uint256"
        }
      ],
      "stateMutability": "view",
      "type": "function"
    },
    {
      "inputs": [],
      "name": "getTicketsSold",
      "outputs": [
        {
          "internalType": "uint256",
          "name": "",
          "type": "uint256"
        }
      ],
      "stateMutability": "view",
      "type": "function"
    },
    {
      "inputs": [],
      "name": "image",
      "outputs": [
        {
          "internalType": "string",
          "name": "",
          "type": "string"
        }
      ],
      "stateMutability": "view",
      "type": "function"
    },
    {
      "inputs": [],
      "name": "isActive",
      "outputs": [
        {
          "internalType": "bool",
          "name": "",
          "type": "bool"
        }
      ],
      "stateMutability": "view",
      "type": "function"
    },
    {
      "inputs": [],
      "name": "location",
      "outputs": [
        {
          "internalType": "string",
          "name": "",
          "type": "string"
        }
      ],
      "stateMutability": "view",
      "type": "function"
    },
    {
      "inputs": [],
      "name": "name",
      "outputs": [
        {
          "internalType": "string",
          "name": "",
          "type": "string"
        }
      ],
      "stateMutability": "view",
      "type": "function"
    },
    {
      "inputs": [],
      "name": "owner",
      "outputs": [
        {
          "internalType": "address",
          "name": "",
          "type": "address"
        }
      ],
      "stateMutability": "view",
      "type": "function"
    },
    {
      "inputs": [],
      "name": "startTime",
      "outputs": [
        {
          "internalType": "uint256",
          "name": "",
          "type": "uint256"
        }
      ],
      "stateMutability": "view",
      "type": "function"
    },
    {
      "inputs": [],
      "name": "ticketPrice",
      "outputs": [
        {
          "internalType": "uint256",
          "name": "",
          "type": "uint256"
        }
      ],
      "stateMutability": "view",
      "type": "function"
    },
    {
      "inputs": [],
      "name": "ticketQuantity",
      "outputs": [
        {
          "internalType": "uint256",
          "name": "",
          "type": "uint256"
        }
      ],
      "stateMutability": "view",
      "type": "function"
    },
    {
      "inputs": [],
      "name": "ticketsRemaining",
      "outputs": [
        {
          "internalType": "uint256",
          "name": "",
          "type": "uint256"
        }
      ],
      "stateMutability": "view",
      "type": "function"
    },
    {
      "inputs": [
        {
          "internalType": "address",
          "name": "",
          "type": "address"
        }
      ],
      "name": "ticketsSold",
      "outputs": [
        {
          "internalType": "address",
          "name": "owner",
          "type": "address"
        },
        {
          "internalType": "uint256",
          "name": "quantityOwned",
          "type": "uint256"
        }
      ],
      "stateMutability": "view",
      "type": "function"
    },
    {
      "inputs": [],
      "name": "visibility",
      "outputs": [
        {
          "internalType": "string",
          "name": "",
          "type": "string"
        }
      ],
      "stateMutability": "view",
      "type": "function"
    },
    {
      "inputs": [],
      "name": "withdraw",
      "outputs": [],
      "stateMutability": "payable",
      "type": "function"
    }
  ],
  "bytecode": "0x60806040526001600d60006101000a81548160ff02191690831515021790555034801561002b57600080fd5b50604051611a6b380380611a6b833981810160405281019061004d91906102c1565b896002908161005c9190610643565b508860048190555087600581905550866006908161007a9190610643565b50856007908161008a9190610643565b50846008908161009a9190610643565b5083600390816100aa9190610643565b508260098190555081600a8190555081600b81905550336000806101000a81548173ffffffffffffffffffffffffffffffffffffffff021916908373ffffffffffffffffffffffffffffffffffffffff1602179055508060018190555050505050505050505050610715565b6000604051905090565b600080fd5b600080fd5b600080fd5b600080fd5b6000601f19601f8301169050919050565b7f4e487b7100000000000000000000000000000000000000000000000000000000600052604160045260246000fd5b61017d82610134565b810181811067ffffffffffffffff8211171561019c5761019b610145565b5b80604052505050565b60006101af610116565b90506101bb8282610174565b919050565b600067ffffffffffffffff8211156101db576101da610145565b5b6101e482610134565b9050602081019050919050565b60005b8381101561020f5780820151818401526020810190506101f4565b60008484015250505050565b600061022e610229846101c0565b6101a5565b90508281526020810184848401111561024a5761024961012f565b5b6102558482856101f1565b509392505050565b600082601f8301126102725761027161012a565b5b815161028284826020860161021b565b91505092915050565b6000819050919050565b61029e8161028b565b81146102a957600080fd5b50565b6000815190506102bb81610295565b92915050565b6000806000806000806000806000806101408b8d0312156102e5576102e4610120565b5b60008b015167ffffffffffffffff81111561030357610302610125565b5b61030f8d828e0161025d565b9a505060206103208d828e016102ac565b99505060406103318d828e016102ac565b98505060608b015167ffffffffffffffff81111561035257610351610125565b5b61035e8d828e0161025d565b97505060808b015167ffffffffffffffff81111561037f5761037e610125565b5b61038b8d828e0161025d565b96505060a08b015167ffffffffffffffff8111156103ac576103ab610125565b5b6103b88d828e0161025d565b95505060c08b015167ffffffffffffffff8111156103d9576103d8610125565b5b6103e58d828e0161025d565b94505060e06103f68d828e016102ac565b9350506101006104088d828e016102ac565b92505061012061041a8d828e016102ac565b9150509295989b9194979a5092959850565b600081519050919050565b7f4e487b7100000000000000000000000000000000000000000000000000000000600052602260045260246000fd5b6000600282049050600182168061047e57607f821691505b60208210810361049157610490610437565b5b50919050565b60008190508160005260206000209050919050565b60006020601f8301049050919050565b600082821b905092915050565b6000600883026104f97fffffffffffffffffffffffffffffffffffffffffffffffffffffffffffffffff826104bc565b61050386836104bc565b95508019841693508086168417925050509392505050565b6000819050919050565b600061054061053b6105368461028b565b61051b565b61028b565b9050919050565b6000819050919050565b61055a83610525565b61056e61056682610547565b8484546104c9565b825550505050565b600090565b610583610576565b61058e818484610551565b505050565b5b818110156105b2576105a760008261057b565b600181019050610594565b5050565b601f8211156105f7576105c881610497565b6105d1846104ac565b810160208510156105e0578190505b6105f46105ec856104ac565b830182610593565b50505b505050565b600082821c905092915050565b600061061a600019846008026105fc565b1980831691505092915050565b60006106338383610609565b9150826002028217905092915050565b61064c8261042c565b67ffffffffffffffff81111561066557610664610145565b5b61066f8254610466565b61067a8282856105b6565b600060209050601f8311600181146106ad576000841561069b578287015190505b6106a58582610627565b86555061070d565b601f1984166106bb86610497565b60005b828110156106e3578489015182556001820191506020850194506020810190506106be565b8683101561070057848901516106fc601f891682610609565b8355505b6001600288020188555050505b505050505050565b611347806107246000396000f3fe6080604052600436106101095760003560e01c8063516f279e1161009557806378e979251161006457806378e97925146103205780638da5cb5b1461034b578063ec8a065514610376578063f3ccaac0146103a1578063fb6c9537146103cc57610109565b8063516f279e14610261578063520198a81461028c57806366bb8db4146102b75780637284e416146102f557610109565b806329adec14116100dc57806329adec14146101ba5780632f366637146101e55780633197cbb6146102015780633548002a1461022c5780633ccfd60b1461025757610109565b806306fdde031461010e578063089cdd0c146101395780631209b1f61461016457806322f3e2d41461018f575b600080fd5b34801561011a57600080fd5b506101236103e3565b6040516101309190610db5565b60405180910390f35b34801561014557600080fd5b5061014e610471565b60405161015b9190610df0565b60405180910390f35b34801561017057600080fd5b50610179610477565b6040516101869190610df0565b60405180910390f35b34801561019b57600080fd5b506101a461047d565b6040516101b19190610e26565b60405180910390f35b3480156101c657600080fd5b506101cf610490565b6040516101dc9190610db5565b60405180910390f35b6101ff60048036038101906101fa9190610e72565b61051e565b005b34801561020d57600080fd5b50610216610818565b6040516102239190610df0565b60405180910390f35b34801561023857600080fd5b5061024161081e565b60405161024e9190610df0565b60405180910390f35b61025f610824565b005b34801561026d57600080fd5b5061027661088d565b6040516102839190610db5565b60405180910390f35b34801561029857600080fd5b506102a161091b565b6040516102ae9190610df0565b60405180910390f35b3480156102c357600080fd5b506102de60048036038101906102d99190610efd565b610965565b6040516102ec929190610f39565b60405180910390f35b34801561030157600080fd5b5061030a6109a9565b6040516103179190610db5565b60405180910390f35b34801561032c57600080fd5b50610335610a37565b6040516103429190610df0565b60405180910390f35b34801561035757600080fd5b50610360610a3d565b60405161036d9190610f62565b60405180910390f35b34801561038257600080fd5b5061038b610a61565b6040516103989190610df0565b60405180910390f35b3480156103ad57600080fd5b506103b6610a67565b6040516103c39190610db5565b60405180910390f35b3480156103d857600080fd5b506103e1610af5565b005b600380546103f090610fac565b80601f016020809104026020016040519081016040528092919081815260200182805461041c90610fac565b80156104695780601f1061043e57610100808354040283529160200191610469565b820191906000526020600020905b81548152906001019060200180831161044c57829003601f168201915b505050505081565b60015481565b60095481565b600d60009054906101000a900460ff1681565b6002805461049d90610fac565b80601f01602080910402602001604051908101604052809291908181526020018280546104c990610fac565b80156105165780601f106104eb57610100808354040283529160200191610516565b820191906000526020600020905b8154815290600101906020018083116104f957829003601f168201915b505050505081565b61055d6040518060400160405280602081526020017f7468652066756e6374696f6e2069732061637475616c6c792072756e6e696e6781525034610ba0565b600d60009054906101000a900460ff166105ac576040517f08c379a00000000000000000000000000000000000000000000000000000000081526004016105a39061104f565b60405180910390fd5b806009546105ba919061109e565b3410156105fc576040517f08c379a00000000000000000000000000000000000000000000000000000000081526004016105f39061112c565b60405180910390fd5b80600b541015610641576040517f08c379a000000000000000000000000000000000000000000000000000000000815260040161063890611198565b60405180910390fd5b6106826040518060400160405280601881526020017f7469636b6574732072656d61696e696e67206265666f72650000000000000000815250600b54610ba0565b80600b5461069091906111b8565b600b819055506106d76040518060400160405280601781526020017f7469636b6574732072656d61696e696e67206166746572000000000000000000815250600b54610ba0565b80600c60003373ffffffffffffffffffffffffffffffffffffffff1673ffffffffffffffffffffffffffffffffffffffff168152602001908152602001600020600101600082825461072991906111ec565b9250508190555033600c60003373ffffffffffffffffffffffffffffffffffffffff1673ffffffffffffffffffffffffffffffffffffffff16815260200190815260200160002060000160006101000a81548173ffffffffffffffffffffffffffffffffffffffff021916908373ffffffffffffffffffffffffffffffffffffffff1602179055506107ef6040518060400160405280600c81526020017f7265616368657320686572650000000000000000000000000000000000000000815250610c3c565b6000600b5403610815576000600d60006101000a81548160ff0219169083151502179055505b50565b60055481565b600b5481565b60008054906101000a900473ffffffffffffffffffffffffffffffffffffffff1673ffffffffffffffffffffffffffffffffffffffff166108fc479081150290604051600060405180830381858888f1935050505015801561088a573d6000803e3d6000fd5b50565b6006805461089a90610fac565b80601f01602080910402602001604051908101604052809291908181526020018280546108c690610fac565b80156109135780601f106108e857610100808354040283529160200191610913565b820191906000526020600020905b8154815290600101906020018083116108f657829003601f168201915b505050505081565b6000600c60003373ffffffffffffffffffffffffffffffffffffffff1673ffffffffffffffffffffffffffffffffffffffff16815260200190815260200160002060010154905090565b600c6020528060005260406000206000915090508060000160009054906101000a900473ffffffffffffffffffffffffffffffffffffffff16908060010154905082565b600780546109b690610fac565b80601f01602080910402602001604051908101604052809291908181526020018280546109e290610fac565b8015610a2f5780601f10610a0457610100808354040283529160200191610a2f565b820191906000526020600020905b815481529060010190602001808311610a1257829003601f168201915b505050505081565b60045481565b60008054906101000a900473ffffffffffffffffffffffffffffffffffffffff1681565b600a5481565b60088054610a7490610fac565b80601f0160208091040260200160405190810160405280929190818152602001828054610aa090610fac565b8015610aed5780601f10610ac257610100808354040283529160200191610aed565b820191906000526020600020905b815481529060010190602001808311610ad057829003601f168201915b505050505081565b60008054906101000a900473ffffffffffffffffffffffffffffffffffffffff1673ffffffffffffffffffffffffffffffffffffffff163373ffffffffffffffffffffffffffffffffffffffff1614610b83576040517f08c379a0000000000000000000000000000000000000000000000000000000008152600401610b7a90611292565b60405180910390fd5b6000600d60006101000a81548160ff021916908315150217905550565b610c388282604051602401610bb69291906112b2565b6040516020818303038152906040527fb60e72cc000000000000000000000000000000000000000000000000000000007bffffffffffffffffffffffffffffffffffffffffffffffffffffffff19166020820180517bffffffffffffffffffffffffffffffffffffffffffffffffffffffff8381831617835250505050610cd5565b5050565b610cd281604051602401610c509190610db5565b6040516020818303038152906040527f41304fac000000000000000000000000000000000000000000000000000000007bffffffffffffffffffffffffffffffffffffffffffffffffffffffff19166020820180517bffffffffffffffffffffffffffffffffffffffffffffffffffffffff8381831617835250505050610cd5565b50565b610cec81610ce4610cef610d10565b63ffffffff16565b50565b60006a636f6e736f6c652e6c6f679050600080835160208501845afa505050565b610d1b819050919050565b610d236112e2565b565b600081519050919050565b600082825260208201905092915050565b60005b83811015610d5f578082015181840152602081019050610d44565b60008484015250505050565b6000601f19601f8301169050919050565b6000610d8782610d25565b610d918185610d30565b9350610da1818560208601610d41565b610daa81610d6b565b840191505092915050565b60006020820190508181036000830152610dcf8184610d7c565b905092915050565b6000819050919050565b610dea81610dd7565b82525050565b6000602082019050610e056000830184610de1565b92915050565b60008115159050919050565b610e2081610e0b565b82525050565b6000602082019050610e3b6000830184610e17565b92915050565b600080fd5b610e4f81610dd7565b8114610e5a57600080fd5b50565b600081359050610e6c81610e46565b92915050565b600060208284031215610e8857610e87610e41565b5b6000610e9684828501610e5d565b91505092915050565b600073ffffffffffffffffffffffffffffffffffffffff82169050919050565b6000610eca82610e9f565b9050919050565b610eda81610ebf565b8114610ee557600080fd5b50565b600081359050610ef781610ed1565b92915050565b600060208284031215610f1357610f12610e41565b5b6000610f2184828501610ee8565b91505092915050565b610f3381610ebf565b82525050565b6000604082019050610f4e6000830185610f2a565b610f5b6020830184610de1565b9392505050565b6000602082019050610f776000830184610f2a565b92915050565b7f4e487b7100000000000000000000000000000000000000000000000000000000600052602260045260246000fd5b60006002820490506001821680610fc457607f821691505b602082108103610fd757610fd6610f7d565b5b50919050565b7f4576656e742068617320656974686572206265656e20656e646564206f72206360008201527f616e63656c6c6564000000000000000000000000000000000000000000000000602082015250565b6000611039602883610d30565b915061104482610fdd565b604082019050919050565b600060208201905081810360008301526110688161102c565b9050919050565b7f4e487b7100000000000000000000000000000000000000000000000000000000600052601160045260246000fd5b60006110a982610dd7565b91506110b483610dd7565b92508282026110c281610dd7565b915082820484148315176110d9576110d861106f565b5b5092915050565b7f496e73756666696369656e742066756e64730000000000000000000000000000600082015250565b6000611116601283610d30565b9150611121826110e0565b602082019050919050565b6000602082019050818103600083015261114581611109565b9050919050565b7f4e6f207469636b6574732072656d61696e696e67000000000000000000000000600082015250565b6000611182601483610d30565b915061118d8261114c565b602082019050919050565b600060208201905081810360008301526111b181611175565b9050919050565b60006111c382610dd7565b91506111ce83610dd7565b92508282039050818111156111e6576111e561106f565b5b92915050565b60006111f782610dd7565b915061120283610dd7565b925082820190508082111561121a5761121961106f565b5b92915050565b7f596f7520617265206e6f7420616c6c6f77656420746f206361727279206f757460008201527f207468697320616374696f6e0000000000000000000000000000000000000000602082015250565b600061127c602c83610d30565b915061128782611220565b604082019050919050565b600060208201905081810360008301526112ab8161126f565b9050919050565b600060408201905081810360008301526112cc8185610d7c565b90506112db6020830184610de1565b9392505050565b7f4e487b7100000000000000000000000000000000000000000000000000000000600052605160045260246000fdfea26469706673582212207615290ced240bd2a08d888881ff74f5186c2bdb6374982ee70d80224b58c10c64736f6c634300081b0033",
  "linkReferences": {},
  "deployedLinkReferences": {}
}