{
  "_format": "hh-sol-artifact-1",
  "contractName": "BounxaEventFactory",
  "sourceName": "contracts/BounxaEventFactory.sol",
  "abi": [
    {
      "anonymous": false,
      "inputs": [
        {
          "indexed": true,
          "internalType": "address",
          "name": "newEventAddress",
          "type": "address"
        }
      ],
      "name": "newEventCreated",
      "type": "event"
    },
    {
      "inputs": [
        {
          "internalType": "string",
          "name": "_name",
          "type": "string"
        },
        {
          "internalType": "uint256",
          "name": "_ticketPrice",
          "type": "uint256"
        },
        {
          "internalType": "uint256",
          "name": "_ticketQuantity",
          "type": "uint256"
        },
        {
          "internalType": "address",
          "name": "_owner",
          "type": "address"
        }
      ],
      "name": "createBounxaEvent",
      "outputs": [
        {
          "internalType": "address",
          "name": "",
          "type": "address"
        }
      ],
      "stateMutability": "nonpayable",
      "type": "function"
    },
    {
      "inputs": [
        {
          "internalType": "address",
          "name": "",
          "type": "address"
        },
        {
          "internalType": "uint256",
          "name": "",
          "type": "uint256"
        }
      ],
      "name": "deployedEvents",
      "outputs": [
        {
          "internalType": "address",
          "name": "",
          "type": "address"
        }
      ],
      "stateMutability": "view",
      "type": "function"
    },
    {
      "inputs": [],
      "name": "eventCount",
      "outputs": [
        {
          "internalType": "uint256",
          "name": "",
          "type": "uint256"
        }
      ],
      "stateMutability": "view",
      "type": "function"
    },
    {
      "inputs": [
        {
          "internalType": "address",
          "name": "userAddress",
          "type": "address"
        }
      ],
      "name": "getEvents",
      "outputs": [
        {
          "internalType": "address[]",
          "name": "",
          "type": "address[]"
        }
      ],
      "stateMutability": "view",
      "type": "function"
    }
  ],
  "bytecode": "0x608060405260008055348015601357600080fd5b50614cd0806100236000396000f3fe608060405234801561001057600080fd5b506004361061004c5760003560e01c806329d793da1461005157806371be2e4a146100815780637fff0dc21461009f578063a4c8b6e3146100cf575b600080fd5b61006b6004803603810190610066919061055f565b6100ff565b60405161007891906105f1565b60405180910390f35b610089610243565b604051610096919061061b565b60405180910390f35b6100b960048036038101906100b49190610636565b610249565b6040516100c691906105f1565b60405180910390f35b6100e960048036038101906100e49190610676565b610297565b6040516100f69190610761565b60405180910390f35b6000806000815461010f906107b2565b9190508190555060008585858560405161012890610364565b6101359493929190610879565b604051809103906000f080158015610151573d6000803e3d6000fd5b509050600160008473ffffffffffffffffffffffffffffffffffffffff1673ffffffffffffffffffffffffffffffffffffffff168152602001908152602001600020819080600181540180825580915050600190039060005260206000200160009091909190916101000a81548173ffffffffffffffffffffffffffffffffffffffff021916908373ffffffffffffffffffffffffffffffffffffffff1602179055508073ffffffffffffffffffffffffffffffffffffffff167f60fdfc03b0ea47a31b416678a5661aacabc9e9c83531c3af93613b3670bb963a60405160405180910390a280915050949350505050565b60005481565b6001602052816000526040600020818154811061026557600080fd5b906000526020600020016000915091509054906101000a900473ffffffffffffffffffffffffffffffffffffffff1681565b6060600160008373ffffffffffffffffffffffffffffffffffffffff1673ffffffffffffffffffffffffffffffffffffffff16815260200190815260200160002080548060200260200160405190810160405280929190818152602001828054801561035857602002820191906000526020600020905b8160009054906101000a900473ffffffffffffffffffffffffffffffffffffffff1673ffffffffffffffffffffffffffffffffffffffff168152602001906001019080831161030e575b50505050509050919050565b6143d5806108c683390190565b6000604051905090565b600080fd5b600080fd5b600080fd5b600080fd5b6000601f19601f8301169050919050565b7f4e487b7100000000000000000000000000000000000000000000000000000000600052604160045260246000fd5b6103d88261038f565b810181811067ffffffffffffffff821117156103f7576103f66103a0565b5b80604052505050565b600061040a610371565b905061041682826103cf565b919050565b600067ffffffffffffffff821115610436576104356103a0565b5b61043f8261038f565b9050602081019050919050565b82818337600083830152505050565b600061046e6104698461041b565b610400565b90508281526020810184848401111561048a5761048961038a565b5b61049584828561044c565b509392505050565b600082601f8301126104b2576104b1610385565b5b81356104c284826020860161045b565b91505092915050565b6000819050919050565b6104de816104cb565b81146104e957600080fd5b50565b6000813590506104fb816104d5565b92915050565b600073ffffffffffffffffffffffffffffffffffffffff82169050919050565b600061052c82610501565b9050919050565b61053c81610521565b811461054757600080fd5b50565b60008135905061055981610533565b92915050565b600080600080608085870312156105795761057861037b565b5b600085013567ffffffffffffffff81111561059757610596610380565b5b6105a38782880161049d565b94505060206105b4878288016104ec565b93505060406105c5878288016104ec565b92505060606105d68782880161054a565b91505092959194509250565b6105eb81610521565b82525050565b600060208201905061060660008301846105e2565b92915050565b610615816104cb565b82525050565b6000602082019050610630600083018461060c565b92915050565b6000806040838503121561064d5761064c61037b565b5b600061065b8582860161054a565b925050602061066c858286016104ec565b9150509250929050565b60006020828403121561068c5761068b61037b565b5b600061069a8482850161054a565b91505092915050565b600081519050919050565b600082825260208201905092915050565b6000819050602082019050919050565b6106d881610521565b82525050565b60006106ea83836106cf565b60208301905092915050565b6000602082019050919050565b600061070e826106a3565b61071881856106ae565b9350610723836106bf565b8060005b8381101561075457815161073b88826106de565b9750610746836106f6565b925050600181019050610727565b5085935050505092915050565b6000602082019050818103600083015261077b8184610703565b905092915050565b7f4e487b7100000000000000000000000000000000000000000000000000000000600052601160045260246000fd5b60006107bd826104cb565b91507fffffffffffffffffffffffffffffffffffffffffffffffffffffffffffffffff82036107ef576107ee610783565b5b600182019050919050565b600081519050919050565b600082825260208201905092915050565b60005b83811015610834578082015181840152602081019050610819565b60008484015250505050565b600061084b826107fa565b6108558185610805565b9350610865818560208601610816565b61086e8161038f565b840191505092915050565b600060808201905081810360008301526108938187610840565b90506108a2602083018661060c565b6108af604083018561060c565b6108bc60608301846105e2565b9594505050505056fe60806040526001600660006101000a81548160ff02191690831515021790555034801561002b57600080fd5b506040516143d53803806143d5833981810160405281019061004d9190610498565b836001908161005c9190610732565b50826002819055508160038190555081600481905550806000806101000a81548173ffffffffffffffffffffffffffffffffffffffff021916908373ffffffffffffffffffffffffffffffffffffffff1602179055506000306001846040516100c490610278565b6100d093929190610903565b604051809103906000f0801580156100ec573d6000803e3d6000fd5b5090506101346040518060400160405280600a81526020017f746865206d696e746572000000000000000000000000000000000000000000008152508261017f60201b60201c565b80600660016101000a81548173ffffffffffffffffffffffffffffffffffffffff021916908373ffffffffffffffffffffffffffffffffffffffff16021790555050505050506109ec565b61021d828260405160240161019592919061098d565b6040516020818303038152906040527f319af333000000000000000000000000000000000000000000000000000000007bffffffffffffffffffffffffffffffffffffffffffffffffffffffff19166020820180517bffffffffffffffffffffffffffffffffffffffffffffffffffffffff838183161783525050505061022160201b60201c565b5050565b6102428161023d61024560201b6107fa1761026660201b60201c565b60201c565b50565b60006a636f6e736f6c652e6c6f679050600080835160208501845afa505050565b61028560201b61081b17819050919050565b612c5e8061177783390190565b61028d6109bd565b565b6000604051905090565b600080fd5b600080fd5b600080fd5b600080fd5b6000601f19601f8301169050919050565b7f4e487b7100000000000000000000000000000000000000000000000000000000600052604160045260246000fd5b6102f6826102ad565b810181811067ffffffffffffffff82111715610315576103146102be565b5b80604052505050565b600061032861028f565b905061033482826102ed565b919050565b600067ffffffffffffffff821115610354576103536102be565b5b61035d826102ad565b9050602081019050919050565b60005b8381101561038857808201518184015260208101905061036d565b60008484015250505050565b60006103a76103a284610339565b61031e565b9050828152602081018484840111156103c3576103c26102a8565b5b6103ce84828561036a565b509392505050565b600082601f8301126103eb576103ea6102a3565b5b81516103fb848260208601610394565b91505092915050565b6000819050919050565b61041781610404565b811461042257600080fd5b50565b6000815190506104348161040e565b92915050565b600073ffffffffffffffffffffffffffffffffffffffff82169050919050565b60006104658261043a565b9050919050565b6104758161045a565b811461048057600080fd5b50565b6000815190506104928161046c565b92915050565b600080600080608085870312156104b2576104b1610299565b5b600085015167ffffffffffffffff8111156104d0576104cf61029e565b5b6104dc878288016103d6565b94505060206104ed87828801610425565b93505060406104fe87828801610425565b925050606061050f87828801610483565b91505092959194509250565b600081519050919050565b7f4e487b7100000000000000000000000000000000000000000000000000000000600052602260045260246000fd5b6000600282049050600182168061056d57607f821691505b6020821081036105805761057f610526565b5b50919050565b60008190508160005260206000209050919050565b60006020601f8301049050919050565b600082821b905092915050565b6000600883026105e87fffffffffffffffffffffffffffffffffffffffffffffffffffffffffffffffff826105ab565b6105f286836105ab565b95508019841693508086168417925050509392505050565b6000819050919050565b600061062f61062a61062584610404565b61060a565b610404565b9050919050565b6000819050919050565b61064983610614565b61065d61065582610636565b8484546105b8565b825550505050565b600090565b610672610665565b61067d818484610640565b505050565b5b818110156106a15761069660008261066a565b600181019050610683565b5050565b601f8211156106e6576106b781610586565b6106c08461059b565b810160208510156106cf578190505b6106e36106db8561059b565b830182610682565b50505b505050565b600082821c905092915050565b6000610709600019846008026106eb565b1980831691505092915050565b600061072283836106f8565b9150826002028217905092915050565b61073b8261051b565b67ffffffffffffffff811115610754576107536102be565b5b61075e8254610555565b6107698282856106a5565b600060209050601f83116001811461079c576000841561078a578287015190505b6107948582610716565b8655506107fc565b601f1984166107aa86610586565b60005b828110156107d2578489015182556001820191506020850194506020810190506107ad565b868310156107ef57848901516107eb601f8916826106f8565b8355505b6001600288020188555050505b505050505050565b61080d8161045a565b82525050565b600082825260208201905092915050565b6000815461083181610555565b61083b8186610813565b94506001821660008114610856576001811461086c5761089f565b60ff19831686528115156020028601935061089f565b61087585610586565b60005b8381101561089757815481890152600182019150602081019050610878565b808801955050505b50505092915050565b7f424f554e58410000000000000000000000000000000000000000000000000000600082015250565b60006108de600683610813565b91506108e9826108a8565b602082019050919050565b6108fd81610404565b82525050565b60006080820190506109186000830186610804565b818103602083015261092a8185610824565b9050818103604083015261093d816108d1565b905061094c60608301846108f4565b949350505050565b600061095f8261051b565b6109698185610813565b935061097981856020860161036a565b610982816102ad565b840191505092915050565b600060408201905081810360008301526109a78185610954565b90506109b66020830184610804565b9392505050565b7f4e487b7100000000000000000000000000000000000000000000000000000000600052605160045260246000fd5b610d7c806109fb6000396000f3fe6080604052600436106100c25760003560e01c806366bb8db41161007f578063bff570e411610059578063bff570e41461023c578063ec8a065514610279578063fb6c9537146102a4578063fdad3a5f146102bb576100c2565b806366bb8db4146101a85780636bd8afe8146101e65780638da5cb5b14610211576100c2565b806306fdde03146100c75780631209b1f6146100f257806322f3e2d41461011d5780633548002a146101485780633ccfd60b14610173578063503303ae1461017d575b600080fd5b3480156100d357600080fd5b506100dc6102d7565b6040516100e991906108b5565b60405180910390f35b3480156100fe57600080fd5b50610107610365565b60405161011491906108f0565b60405180910390f35b34801561012957600080fd5b5061013261036b565b60405161013f9190610926565b60405180910390f35b34801561015457600080fd5b5061015d61037e565b60405161016a91906108f0565b60405180910390f35b61017b610384565b005b34801561018957600080fd5b506101926103ed565b60405161019f9190610982565b60405180910390f35b3480156101b457600080fd5b506101cf60048036038101906101ca91906109ce565b610413565b6040516101dd9291906109fb565b60405180910390f35b3480156101f257600080fd5b506101fb610457565b6040516102089190610982565b60405180910390f35b34801561021d57600080fd5b50610226610481565b6040516102339190610982565b60405180910390f35b34801561024857600080fd5b50610263600480360381019061025e91906109ce565b6104a5565b60405161027091906108f0565b60405180910390f35b34801561028557600080fd5b5061028e6104f1565b60405161029b91906108f0565b60405180910390f35b3480156102b057600080fd5b506102b96104f7565b005b6102d560048036038101906102d09190610a50565b6105a2565b005b600180546102e490610abf565b80601f016020809104026020016040519081016040528092919081815260200182805461031090610abf565b801561035d5780601f106103325761010080835404028352916020019161035d565b820191906000526020600020905b81548152906001019060200180831161034057829003601f168201915b505050505081565b60025481565b600660009054906101000a900460ff1681565b60045481565b60008054906101000a900473ffffffffffffffffffffffffffffffffffffffff1673ffffffffffffffffffffffffffffffffffffffff166108fc479081150290604051600060405180830381858888f193505050501580156103ea573d6000803e3d6000fd5b50565b600660019054906101000a900473ffffffffffffffffffffffffffffffffffffffff1681565b60056020528060005260406000206000915090508060000160009054906101000a900473ffffffffffffffffffffffffffffffffffffffff16908060010154905082565b6000600660019054906101000a900473ffffffffffffffffffffffffffffffffffffffff16905090565b60008054906101000a900473ffffffffffffffffffffffffffffffffffffffff1681565b6000600560008373ffffffffffffffffffffffffffffffffffffffff1673ffffffffffffffffffffffffffffffffffffffff168152602001908152602001600020600101549050919050565b60035481565b60008054906101000a900473ffffffffffffffffffffffffffffffffffffffff1673ffffffffffffffffffffffffffffffffffffffff163373ffffffffffffffffffffffffffffffffffffffff1614610585576040517f08c379a000000000000000000000000000000000000000000000000000000000815260040161057c90610b62565b60405180910390fd5b6000600660006101000a81548160ff021916908315150217905550565b600660009054906101000a900460ff166105f1576040517f08c379a00000000000000000000000000000000000000000000000000000000081526004016105e890610bf4565b60405180910390fd5b816004541015610636576040517f08c379a000000000000000000000000000000000000000000000000000000000815260040161062d90610c60565b60405180910390fd5b816004546106449190610caf565b6004819055506000600660019054906101000a900473ffffffffffffffffffffffffffffffffffffffff16905060005b838110156106f4578173ffffffffffffffffffffffffffffffffffffffff166340d097c3846040518263ffffffff1660e01b81526004016106b59190610982565b600060405180830381600087803b1580156106cf57600080fd5b505af11580156106e3573d6000803e3d6000fd5b505050508080600101915050610674565b5082600560008473ffffffffffffffffffffffffffffffffffffffff1673ffffffffffffffffffffffffffffffffffffffff16815260200190815260200160002060010160008282546107479190610ce3565b9250508190555081600560008473ffffffffffffffffffffffffffffffffffffffff1673ffffffffffffffffffffffffffffffffffffffff16815260200190815260200160002060000160006101000a81548173ffffffffffffffffffffffffffffffffffffffff021916908373ffffffffffffffffffffffffffffffffffffffff1602179055506000600454036107f5576000600660006101000a81548160ff0219169083151502179055505b505050565b60006a636f6e736f6c652e6c6f679050600080835160208501845afa505050565b610823610d17565b565b600081519050919050565b600082825260208201905092915050565b60005b8381101561085f578082015181840152602081019050610844565b60008484015250505050565b6000601f19601f8301169050919050565b600061088782610825565b6108918185610830565b93506108a1818560208601610841565b6108aa8161086b565b840191505092915050565b600060208201905081810360008301526108cf818461087c565b905092915050565b6000819050919050565b6108ea816108d7565b82525050565b600060208201905061090560008301846108e1565b92915050565b60008115159050919050565b6109208161090b565b82525050565b600060208201905061093b6000830184610917565b92915050565b600073ffffffffffffffffffffffffffffffffffffffff82169050919050565b600061096c82610941565b9050919050565b61097c81610961565b82525050565b60006020820190506109976000830184610973565b92915050565b600080fd5b6109ab81610961565b81146109b657600080fd5b50565b6000813590506109c8816109a2565b92915050565b6000602082840312156109e4576109e361099d565b5b60006109f2848285016109b9565b91505092915050565b6000604082019050610a106000830185610973565b610a1d60208301846108e1565b9392505050565b610a2d816108d7565b8114610a3857600080fd5b50565b600081359050610a4a81610a24565b92915050565b60008060408385031215610a6757610a6661099d565b5b6000610a7585828601610a3b565b9250506020610a86858286016109b9565b9150509250929050565b7f4e487b7100000000000000000000000000000000000000000000000000000000600052602260045260246000fd5b60006002820490506001821680610ad757607f821691505b602082108103610aea57610ae9610a90565b5b50919050565b7f596f7520617265206e6f7420616c6c6f77656420746f206361727279206f757460008201527f207468697320616374696f6e0000000000000000000000000000000000000000602082015250565b6000610b4c602c83610830565b9150610b5782610af0565b604082019050919050565b60006020820190508181036000830152610b7b81610b3f565b9050919050565b7f4576656e74206861732065697468657220656e646564206f722063616e63656c60008201527f6c65640000000000000000000000000000000000000000000000000000000000602082015250565b6000610bde602383610830565b9150610be982610b82565b604082019050919050565b60006020820190508181036000830152610c0d81610bd1565b9050919050565b7f4e6f207469636b6574732072656d61696e696e67000000000000000000000000600082015250565b6000610c4a601483610830565b9150610c5582610c14565b602082019050919050565b60006020820190508181036000830152610c7981610c3d565b9050919050565b7f4e487b7100000000000000000000000000000000000000000000000000000000600052601160045260246000fd5b6000610cba826108d7565b9150610cc5836108d7565b9250828203905081811115610cdd57610cdc610c80565b5b92915050565b6000610cee826108d7565b9150610cf9836108d7565b9250828201905080821115610d1157610d10610c80565b5b92915050565b7f4e487b7100000000000000000000000000000000000000000000000000000000600052605160045260246000fdfea264697066735822122080d2536d669bb07a80571b020ea8898150bf58edadb23e67a9d1a0b5a81ded0164736f6c634300081b00336080604052620186a060085534801561001757600080fd5b50604051612c5e380380612c5e833981810160405281019061003991906103c7565b838383816000908161004b919061067d565b50806001908161005b919061067d565b505050600073ffffffffffffffffffffffffffffffffffffffff168173ffffffffffffffffffffffffffffffffffffffff16036100d05760006040517f1e4fbdf70000000000000000000000000000000000000000000000000000000081526004016100c7919061075e565b60405180910390fd5b6100df816100f860201b60201c565b5080600881905550600060078190555050505050610779565b6000600660009054906101000a900473ffffffffffffffffffffffffffffffffffffffff16905081600660006101000a81548173ffffffffffffffffffffffffffffffffffffffff021916908373ffffffffffffffffffffffffffffffffffffffff1602179055508173ffffffffffffffffffffffffffffffffffffffff168173ffffffffffffffffffffffffffffffffffffffff167f8be0079c531659141344cd1fd0a4f28419497f9722a3daafe3b4186f6b6457e060405160405180910390a35050565b6000604051905090565b600080fd5b600080fd5b600073ffffffffffffffffffffffffffffffffffffffff82169050919050565b60006101fd826101d2565b9050919050565b61020d816101f2565b811461021857600080fd5b50565b60008151905061022a81610204565b92915050565b600080fd5b600080fd5b6000601f19601f8301169050919050565b7f4e487b7100000000000000000000000000000000000000000000000000000000600052604160045260246000fd5b6102838261023a565b810181811067ffffffffffffffff821117156102a2576102a161024b565b5b80604052505050565b60006102b56101be565b90506102c1828261027a565b919050565b600067ffffffffffffffff8211156102e1576102e061024b565b5b6102ea8261023a565b9050602081019050919050565b60005b838110156103155780820151818401526020810190506102fa565b60008484015250505050565b600061033461032f846102c6565b6102ab565b9050828152602081018484840111156103505761034f610235565b5b61035b8482856102f7565b509392505050565b600082601f83011261037857610377610230565b5b8151610388848260208601610321565b91505092915050565b6000819050919050565b6103a481610391565b81146103af57600080fd5b50565b6000815190506103c18161039b565b92915050565b600080600080608085870312156103e1576103e06101c8565b5b60006103ef8782880161021b565b945050602085015167ffffffffffffffff8111156104105761040f6101cd565b5b61041c87828801610363565b935050604085015167ffffffffffffffff81111561043d5761043c6101cd565b5b61044987828801610363565b925050606061045a878288016103b2565b91505092959194509250565b600081519050919050565b7f4e487b7100000000000000000000000000000000000000000000000000000000600052602260045260246000fd5b600060028204905060018216806104b857607f821691505b6020821081036104cb576104ca610471565b5b50919050565b60008190508160005260206000209050919050565b60006020601f8301049050919050565b600082821b905092915050565b6000600883026105337fffffffffffffffffffffffffffffffffffffffffffffffffffffffffffffffff826104f6565b61053d86836104f6565b95508019841693508086168417925050509392505050565b6000819050919050565b600061057a61057561057084610391565b610555565b610391565b9050919050565b6000819050919050565b6105948361055f565b6105a86105a082610581565b848454610503565b825550505050565b600090565b6105bd6105b0565b6105c881848461058b565b505050565b5b818110156105ec576105e16000826105b5565b6001810190506105ce565b5050565b601f82111561063157610602816104d1565b61060b846104e6565b8101602085101561061a578190505b61062e610626856104e6565b8301826105cd565b50505b505050565b600082821c905092915050565b600061065460001984600802610636565b1980831691505092915050565b600061066d8383610643565b9150826002028217905092915050565b61068682610466565b67ffffffffffffffff81111561069f5761069e61024b565b5b6106a982546104a0565b6106b48282856105f0565b600060209050601f8311600181146106e757600084156106d5578287015190505b6106df8582610661565b865550610747565b601f1984166106f5866104d1565b60005b8281101561071d578489015182556001820191506020850194506020810190506106f8565b8683101561073a5784890151610736601f891682610643565b8355505b6001600288020188555050505b505050505050565b610758816101f2565b82525050565b6000602082019050610773600083018461074f565b92915050565b6124d6806107886000396000f3fe608060405234801561001057600080fd5b506004361061012c5760003560e01c806370a08231116100ad578063b88d4fde11610071578063b88d4fde1461031b578063c87b56dd14610337578063d5abeb0114610367578063e985e9c514610385578063f2fde38b146103b55761012c565b806370a0823114610289578063715018a6146102b95780638da5cb5b146102c357806395d89b41146102e1578063a22cb465146102ff5761012c565b806340d097c3116100f457806340d097c3146101e757806342842e0e1461020357806342966c681461021f5780634f02c4201461023b5780636352211e146102595761012c565b806301ffc9a71461013157806306fdde0314610161578063081812fc1461017f578063095ea7b3146101af57806323b872dd146101cb575b600080fd5b61014b60048036038101906101469190611be4565b6103d1565b6040516101589190611c2c565b60405180910390f35b6101696103e3565b6040516101769190611cd7565b60405180910390f35b61019960048036038101906101949190611d2f565b610475565b6040516101a69190611d9d565b60405180910390f35b6101c960048036038101906101c49190611de4565b610491565b005b6101e560048036038101906101e09190611e24565b6104a7565b005b61020160048036038101906101fc9190611e77565b6105a9565b005b61021d60048036038101906102189190611e24565b61069f565b005b61023960048036038101906102349190611d2f565b6106bf565b005b6102436106d6565b6040516102509190611eb3565b60405180910390f35b610273600480360381019061026e9190611d2f565b6106dc565b6040516102809190611d9d565b60405180910390f35b6102a3600480360381019061029e9190611e77565b6106ee565b6040516102b09190611eb3565b60405180910390f35b6102c16107a8565b005b6102cb6107bc565b6040516102d89190611d9d565b60405180910390f35b6102e96107e6565b6040516102f69190611cd7565b60405180910390f35b61031960048036038101906103149190611efa565b610878565b005b6103356004803603810190610330919061206f565b61088e565b005b610351600480360381019061034c9190611d2f565b6108ab565b60405161035e9190611cd7565b60405180910390f35b61036f6108bd565b60405161037c9190611eb3565b60405180910390f35b61039f600480360381019061039a91906120f2565b6108c3565b6040516103ac9190611c2c565b60405180910390f35b6103cf60048036038101906103ca9190611e77565b610957565b005b60006103dc826109dd565b9050919050565b6060600080546103f290612161565b80601f016020809104026020016040519081016040528092919081815260200182805461041e90612161565b801561046b5780601f106104405761010080835404028352916020019161046b565b820191906000526020600020905b81548152906001019060200180831161044e57829003601f168201915b5050505050905090565b600061048082610abf565b5061048a82610b47565b9050919050565b6104a3828261049e610b84565b610b8c565b5050565b600073ffffffffffffffffffffffffffffffffffffffff168273ffffffffffffffffffffffffffffffffffffffff16036105195760006040517f64a0ae920000000000000000000000000000000000000000000000000000000081526004016105109190611d9d565b60405180910390fd5b600061052d8383610528610b84565b610b9e565b90508373ffffffffffffffffffffffffffffffffffffffff168173ffffffffffffffffffffffffffffffffffffffff16146105a3578382826040517f64283d7b00000000000000000000000000000000000000000000000000000000815260040161059a93929190612192565b60405180910390fd5b50505050565b6105b1610db8565b6105ef6040518060400160405280600a81526020017f6d696e74696e672e2e2e00000000000000000000000000000000000000000000815250610e3f565b60085460075410610635576040517f08c379a000000000000000000000000000000000000000000000000000000000815260040161062c90612215565b60405180910390fd5b600060016007546106469190612264565b90506106528282610ed8565b8060078190555061069b6040518060400160405280600681526020017f6d696e746564000000000000000000000000000000000000000000000000000081525060075484610ef6565b5050565b6106ba8383836040518060200160405280600081525061088e565b505050565b6106d26000826106cd610b84565b610b9e565b5050565b60075481565b60006106e782610abf565b9050919050565b60008073ffffffffffffffffffffffffffffffffffffffff168273ffffffffffffffffffffffffffffffffffffffff16036107615760006040517f89c62b640000000000000000000000000000000000000000000000000000000081526004016107589190611d9d565b60405180910390fd5b600360008373ffffffffffffffffffffffffffffffffffffffff1673ffffffffffffffffffffffffffffffffffffffff168152602001908152602001600020549050919050565b6107b0610db8565b6107ba6000610f95565b565b6000600660009054906101000a900473ffffffffffffffffffffffffffffffffffffffff16905090565b6060600180546107f590612161565b80601f016020809104026020016040519081016040528092919081815260200182805461082190612161565b801561086e5780601f106108435761010080835404028352916020019161086e565b820191906000526020600020905b81548152906001019060200180831161085157829003601f168201915b5050505050905090565b61088a610883610b84565b838361105b565b5050565b6108998484846104a7565b6108a5848484846111ca565b50505050565b60606108b682611381565b9050919050565b60085481565b6000600560008473ffffffffffffffffffffffffffffffffffffffff1673ffffffffffffffffffffffffffffffffffffffff16815260200190815260200160002060008373ffffffffffffffffffffffffffffffffffffffff1673ffffffffffffffffffffffffffffffffffffffff16815260200190815260200160002060009054906101000a900460ff16905092915050565b61095f610db8565b600073ffffffffffffffffffffffffffffffffffffffff168173ffffffffffffffffffffffffffffffffffffffff16036109d15760006040517f1e4fbdf70000000000000000000000000000000000000000000000000000000081526004016109c89190611d9d565b60405180910390fd5b6109da81610f95565b50565b60007f80ac58cd000000000000000000000000000000000000000000000000000000007bffffffffffffffffffffffffffffffffffffffffffffffffffffffff1916827bffffffffffffffffffffffffffffffffffffffffffffffffffffffff19161480610aa857507f5b5e139f000000000000000000000000000000000000000000000000000000007bffffffffffffffffffffffffffffffffffffffffffffffffffffffff1916827bffffffffffffffffffffffffffffffffffffffffffffffffffffffff1916145b80610ab85750610ab7826113ea565b5b9050919050565b600080610acb83611454565b9050600073ffffffffffffffffffffffffffffffffffffffff168173ffffffffffffffffffffffffffffffffffffffff1603610b3e57826040517f7e273289000000000000000000000000000000000000000000000000000000008152600401610b359190611eb3565b60405180910390fd5b80915050919050565b60006004600083815260200190815260200160002060009054906101000a900473ffffffffffffffffffffffffffffffffffffffff169050919050565b600033905090565b610b998383836001611491565b505050565b600080610baa84611454565b9050600073ffffffffffffffffffffffffffffffffffffffff168373ffffffffffffffffffffffffffffffffffffffff1614610bec57610beb818486611656565b5b600073ffffffffffffffffffffffffffffffffffffffff168173ffffffffffffffffffffffffffffffffffffffff1614610c7d57610c2e600085600080611491565b6001600360008373ffffffffffffffffffffffffffffffffffffffff1673ffffffffffffffffffffffffffffffffffffffff168152602001908152602001600020600082825403925050819055505b600073ffffffffffffffffffffffffffffffffffffffff168573ffffffffffffffffffffffffffffffffffffffff1614610d00576001600360008773ffffffffffffffffffffffffffffffffffffffff1673ffffffffffffffffffffffffffffffffffffffff168152602001908152602001600020600082825401925050819055505b846002600086815260200190815260200160002060006101000a81548173ffffffffffffffffffffffffffffffffffffffff021916908373ffffffffffffffffffffffffffffffffffffffff160217905550838573ffffffffffffffffffffffffffffffffffffffff168273ffffffffffffffffffffffffffffffffffffffff167fddf252ad1be2c89b69c2b068fc378daa952ba7f163c4a11628f55a4df523b3ef60405160405180910390a4809150509392505050565b610dc0610b84565b73ffffffffffffffffffffffffffffffffffffffff16610dde6107bc565b73ffffffffffffffffffffffffffffffffffffffff1614610e3d57610e01610b84565b6040517f118cdaa7000000000000000000000000000000000000000000000000000000008152600401610e349190611d9d565b60405180910390fd5b565b610ed581604051602401610e539190611cd7565b6040516020818303038152906040527f41304fac000000000000000000000000000000000000000000000000000000007bffffffffffffffffffffffffffffffffffffffffffffffffffffffff19166020820180517bffffffffffffffffffffffffffffffffffffffffffffffffffffffff838183161783525050505061171a565b50565b610ef2828260405180602001604052806000815250611734565b5050565b610f90838383604051602401610f0e93929190612298565b6040516020818303038152906040527f1c7ec448000000000000000000000000000000000000000000000000000000007bffffffffffffffffffffffffffffffffffffffffffffffffffffffff19166020820180517bffffffffffffffffffffffffffffffffffffffffffffffffffffffff838183161783525050505061171a565b505050565b6000600660009054906101000a900473ffffffffffffffffffffffffffffffffffffffff16905081600660006101000a81548173ffffffffffffffffffffffffffffffffffffffff021916908373ffffffffffffffffffffffffffffffffffffffff1602179055508173ffffffffffffffffffffffffffffffffffffffff168173ffffffffffffffffffffffffffffffffffffffff167f8be0079c531659141344cd1fd0a4f28419497f9722a3daafe3b4186f6b6457e060405160405180910390a35050565b600073ffffffffffffffffffffffffffffffffffffffff168273ffffffffffffffffffffffffffffffffffffffff16036110cc57816040517f5b08ba180000000000000000000000000000000000000000000000000000000081526004016110c39190611d9d565b60405180910390fd5b80600560008573ffffffffffffffffffffffffffffffffffffffff1673ffffffffffffffffffffffffffffffffffffffff16815260200190815260200160002060008473ffffffffffffffffffffffffffffffffffffffff1673ffffffffffffffffffffffffffffffffffffffff16815260200190815260200160002060006101000a81548160ff0219169083151502179055508173ffffffffffffffffffffffffffffffffffffffff168373ffffffffffffffffffffffffffffffffffffffff167f17307eab39ab6107e8899845ad3d59bd9653f200f220920489ca2b5937696c31836040516111bd9190611c2c565b60405180910390a3505050565b60008373ffffffffffffffffffffffffffffffffffffffff163b111561137b578273ffffffffffffffffffffffffffffffffffffffff1663150b7a0261120e610b84565b8685856040518563ffffffff1660e01b8152600401611230949392919061232b565b6020604051808303816000875af192505050801561126c57506040513d601f19601f82011682018060405250810190611269919061238c565b60015b6112f0573d806000811461129c576040519150601f19603f3d011682016040523d82523d6000602084013e6112a1565b606091505b5060008151036112e857836040517f64a0ae920000000000000000000000000000000000000000000000000000000081526004016112df9190611d9d565b60405180910390fd5b805181602001fd5b63150b7a0260e01b7bffffffffffffffffffffffffffffffffffffffffffffffffffffffff1916817bffffffffffffffffffffffffffffffffffffffffffffffffffffffff19161461137957836040517f64a0ae920000000000000000000000000000000000000000000000000000000081526004016113709190611d9d565b60405180910390fd5b505b50505050565b606061138c82610abf565b506000611397611750565b905060008151116113b757604051806020016040528060008152506113e2565b806113c184611767565b6040516020016113d29291906123f5565b6040516020818303038152906040525b915050919050565b60007f01ffc9a7000000000000000000000000000000000000000000000000000000007bffffffffffffffffffffffffffffffffffffffffffffffffffffffff1916827bffffffffffffffffffffffffffffffffffffffffffffffffffffffff1916149050919050565b60006002600083815260200190815260200160002060009054906101000a900473ffffffffffffffffffffffffffffffffffffffff169050919050565b80806114ca5750600073ffffffffffffffffffffffffffffffffffffffff168273ffffffffffffffffffffffffffffffffffffffff1614155b156115fe5760006114da84610abf565b9050600073ffffffffffffffffffffffffffffffffffffffff168373ffffffffffffffffffffffffffffffffffffffff161415801561154557508273ffffffffffffffffffffffffffffffffffffffff168173ffffffffffffffffffffffffffffffffffffffff1614155b8015611558575061155681846108c3565b155b1561159a57826040517fa9fbf51f0000000000000000000000000000000000000000000000000000000081526004016115919190611d9d565b60405180910390fd5b81156115fc57838573ffffffffffffffffffffffffffffffffffffffff168273ffffffffffffffffffffffffffffffffffffffff167f8c5be1e5ebec7d5bd14f71427d1e84f3dd0314c0f7b2291e5b200ac8c7c3b92560405160405180910390a45b505b836004600085815260200190815260200160002060006101000a81548173ffffffffffffffffffffffffffffffffffffffff021916908373ffffffffffffffffffffffffffffffffffffffff16021790555050505050565b611661838383611835565b61171557600073ffffffffffffffffffffffffffffffffffffffff168373ffffffffffffffffffffffffffffffffffffffff16036116d657806040517f7e2732890000000000000000000000000000000000000000000000000000000081526004016116cd9190611eb3565b60405180910390fd5b81816040517f177e802f00000000000000000000000000000000000000000000000000000000815260040161170c929190612419565b60405180910390fd5b505050565b611731816117296118f6611917565b63ffffffff16565b50565b61173e8383611922565b61174b60008484846111ca565b505050565b606060405180602001604052806000815250905090565b60606000600161177684611a1b565b01905060008167ffffffffffffffff81111561179557611794611f44565b5b6040519080825280601f01601f1916602001820160405280156117c75781602001600182028036833780820191505090505b509050600082602001820190505b60011561182a578080600190039150507f3031323334353637383961626364656600000000000000000000000000000000600a86061a8153600a858161181e5761181d612442565b5b049450600085036117d5575b819350505050919050565b60008073ffffffffffffffffffffffffffffffffffffffff168373ffffffffffffffffffffffffffffffffffffffff16141580156118ed57508273ffffffffffffffffffffffffffffffffffffffff168473ffffffffffffffffffffffffffffffffffffffff1614806118ae57506118ad84846108c3565b5b806118ec57508273ffffffffffffffffffffffffffffffffffffffff166118d483610b47565b73ffffffffffffffffffffffffffffffffffffffff16145b5b90509392505050565b60006a636f6e736f6c652e6c6f679050600080835160208501845afa505050565b611b6e819050919050565b600073ffffffffffffffffffffffffffffffffffffffff168273ffffffffffffffffffffffffffffffffffffffff16036119945760006040517f64a0ae9200000000000000000000000000000000000000000000000000000000815260040161198b9190611d9d565b60405180910390fd5b60006119a283836000610b9e565b9050600073ffffffffffffffffffffffffffffffffffffffff168173ffffffffffffffffffffffffffffffffffffffff1614611a165760006040517f73c6ac6e000000000000000000000000000000000000000000000000000000008152600401611a0d9190611d9d565b60405180910390fd5b505050565b600080600090507a184f03e93ff9f4daa797ed6e38ed64bf6a1f0100000000000000008310611a79577a184f03e93ff9f4daa797ed6e38ed64bf6a1f0100000000000000008381611a6f57611a6e612442565b5b0492506040810190505b6d04ee2d6d415b85acef81000000008310611ab6576d04ee2d6d415b85acef81000000008381611aac57611aab612442565b5b0492506020810190505b662386f26fc100008310611ae557662386f26fc100008381611adb57611ada612442565b5b0492506010810190505b6305f5e1008310611b0e576305f5e1008381611b0457611b03612442565b5b0492506008810190505b6127108310611b33576127108381611b2957611b28612442565b5b0492506004810190505b60648310611b565760648381611b4c57611b4b612442565b5b0492506002810190505b600a8310611b65576001810190505b80915050919050565b611b76612471565b565b6000604051905090565b600080fd5b600080fd5b60007fffffffff0000000000000000000000000000000000000000000000000000000082169050919050565b611bc181611b8c565b8114611bcc57600080fd5b50565b600081359050611bde81611bb8565b92915050565b600060208284031215611bfa57611bf9611b82565b5b6000611c0884828501611bcf565b91505092915050565b60008115159050919050565b611c2681611c11565b82525050565b6000602082019050611c416000830184611c1d565b92915050565b600081519050919050565b600082825260208201905092915050565b60005b83811015611c81578082015181840152602081019050611c66565b60008484015250505050565b6000601f19601f8301169050919050565b6000611ca982611c47565b611cb38185611c52565b9350611cc3818560208601611c63565b611ccc81611c8d565b840191505092915050565b60006020820190508181036000830152611cf18184611c9e565b905092915050565b6000819050919050565b611d0c81611cf9565b8114611d1757600080fd5b50565b600081359050611d2981611d03565b92915050565b600060208284031215611d4557611d44611b82565b5b6000611d5384828501611d1a565b91505092915050565b600073ffffffffffffffffffffffffffffffffffffffff82169050919050565b6000611d8782611d5c565b9050919050565b611d9781611d7c565b82525050565b6000602082019050611db26000830184611d8e565b92915050565b611dc181611d7c565b8114611dcc57600080fd5b50565b600081359050611dde81611db8565b92915050565b60008060408385031215611dfb57611dfa611b82565b5b6000611e0985828601611dcf565b9250506020611e1a85828601611d1a565b9150509250929050565b600080600060608486031215611e3d57611e3c611b82565b5b6000611e4b86828701611dcf565b9350506020611e5c86828701611dcf565b9250506040611e6d86828701611d1a565b9150509250925092565b600060208284031215611e8d57611e8c611b82565b5b6000611e9b84828501611dcf565b91505092915050565b611ead81611cf9565b82525050565b6000602082019050611ec86000830184611ea4565b92915050565b611ed781611c11565b8114611ee257600080fd5b50565b600081359050611ef481611ece565b92915050565b60008060408385031215611f1157611f10611b82565b5b6000611f1f85828601611dcf565b9250506020611f3085828601611ee5565b9150509250929050565b600080fd5b600080fd5b7f4e487b7100000000000000000000000000000000000000000000000000000000600052604160045260246000fd5b611f7c82611c8d565b810181811067ffffffffffffffff82111715611f9b57611f9a611f44565b5b80604052505050565b6000611fae611b78565b9050611fba8282611f73565b919050565b600067ffffffffffffffff821115611fda57611fd9611f44565b5b611fe382611c8d565b9050602081019050919050565b82818337600083830152505050565b600061201261200d84611fbf565b611fa4565b90508281526020810184848401111561202e5761202d611f3f565b5b612039848285611ff0565b509392505050565b600082601f83011261205657612055611f3a565b5b8135612066848260208601611fff565b91505092915050565b6000806000806080858703121561208957612088611b82565b5b600061209787828801611dcf565b94505060206120a887828801611dcf565b93505060406120b987828801611d1a565b925050606085013567ffffffffffffffff8111156120da576120d9611b87565b5b6120e687828801612041565b91505092959194509250565b6000806040838503121561210957612108611b82565b5b600061211785828601611dcf565b925050602061212885828601611dcf565b9150509250929050565b7f4e487b7100000000000000000000000000000000000000000000000000000000600052602260045260246000fd5b6000600282049050600182168061217957607f821691505b60208210810361218c5761218b612132565b5b50919050565b60006060820190506121a76000830186611d8e565b6121b46020830185611ea4565b6121c16040830184611d8e565b949350505050565b7f5469636b6574732061726520736f6c64206f7574000000000000000000000000600082015250565b60006121ff601483611c52565b915061220a826121c9565b602082019050919050565b6000602082019050818103600083015261222e816121f2565b9050919050565b7f4e487b7100000000000000000000000000000000000000000000000000000000600052601160045260246000fd5b600061226f82611cf9565b915061227a83611cf9565b925082820190508082111561229257612291612235565b5b92915050565b600060608201905081810360008301526122b28186611c9e565b90506122c16020830185611ea4565b6122ce6040830184611d8e565b949350505050565b600081519050919050565b600082825260208201905092915050565b60006122fd826122d6565b61230781856122e1565b9350612317818560208601611c63565b61232081611c8d565b840191505092915050565b60006080820190506123406000830187611d8e565b61234d6020830186611d8e565b61235a6040830185611ea4565b818103606083015261236c81846122f2565b905095945050505050565b60008151905061238681611bb8565b92915050565b6000602082840312156123a2576123a1611b82565b5b60006123b084828501612377565b91505092915050565b600081905092915050565b60006123cf82611c47565b6123d981856123b9565b93506123e9818560208601611c63565b80840191505092915050565b600061240182856123c4565b915061240d82846123c4565b91508190509392505050565b600060408201905061242e6000830185611d8e565b61243b6020830184611ea4565b9392505050565b7f4e487b7100000000000000000000000000000000000000000000000000000000600052601260045260246000fd5b7f4e487b7100000000000000000000000000000000000000000000000000000000600052605160045260246000fdfea264697066735822122027117f0a0eb4313f72eab9b145352481dfba1fae59212d7c0df028233bd0b9a764736f6c634300081b0033a2646970667358221220e980b96e18097537d18ddce6e165eebd13c765a22a5c90d8a6a95317d4ee975e64736f6c634300081b0033",
  "linkReferences": {},
  "deployedLinkReferences": {}
}