{
  "_format": "hh-sol-artifact-1",
  "contractName": "BounxaEventFactory",
  "sourceName": "contracts/BounxaEventFactory.sol",
  "abi": [
    {
      "anonymous": false,
      "inputs": [
        {
          "indexed": true,
          "internalType": "address",
          "name": "newEventAddress",
          "type": "address"
        }
      ],
      "name": "newEventCreated",
      "type": "event"
    },
    {
      "inputs": [
        {
          "internalType": "string",
          "name": "_name",
          "type": "string"
        },
        {
          "internalType": "uint256",
          "name": "_ticketPrice",
          "type": "uint256"
        },
        {
          "internalType": "uint256",
          "name": "_ticketQuantity",
          "type": "uint256"
        },
        {
          "internalType": "address",
          "name": "_owner",
          "type": "address"
        }
      ],
      "name": "createBounxaEvent",
      "outputs": [
        {
          "internalType": "address",
          "name": "",
          "type": "address"
        }
      ],
      "stateMutability": "nonpayable",
      "type": "function"
    },
    {
      "inputs": [
        {
          "internalType": "address",
          "name": "",
          "type": "address"
        },
        {
          "internalType": "uint256",
          "name": "",
          "type": "uint256"
        }
      ],
      "name": "deployedEvents",
      "outputs": [
        {
          "internalType": "address",
          "name": "",
          "type": "address"
        }
      ],
      "stateMutability": "view",
      "type": "function"
    },
    {
      "inputs": [],
      "name": "eventCount",
      "outputs": [
        {
          "internalType": "uint256",
          "name": "",
          "type": "uint256"
        }
      ],
      "stateMutability": "view",
      "type": "function"
    },
    {
      "inputs": [
        {
          "internalType": "address",
          "name": "userAddress",
          "type": "address"
        }
      ],
      "name": "getEvents",
      "outputs": [
        {
          "internalType": "address[]",
          "name": "",
          "type": "address[]"
        }
      ],
      "stateMutability": "view",
      "type": "function"
    }
  ],
  "bytecode": "0x608060405260008055348015601357600080fd5b50614ac1806100236000396000f3fe608060405234801561001057600080fd5b506004361061004c5760003560e01c806329d793da1461005157806371be2e4a146100815780637fff0dc21461009f578063a4c8b6e3146100cf575b600080fd5b61006b6004803603810190610066919061055f565b6100ff565b60405161007891906105f1565b60405180910390f35b610089610243565b604051610096919061061b565b60405180910390f35b6100b960048036038101906100b49190610636565b610249565b6040516100c691906105f1565b60405180910390f35b6100e960048036038101906100e49190610676565b610297565b6040516100f69190610761565b60405180910390f35b6000806000815461010f906107b2565b9190508190555060008585858560405161012890610364565b6101359493929190610879565b604051809103906000f080158015610151573d6000803e3d6000fd5b509050600160008473ffffffffffffffffffffffffffffffffffffffff1673ffffffffffffffffffffffffffffffffffffffff168152602001908152602001600020819080600181540180825580915050600190039060005260206000200160009091909190916101000a81548173ffffffffffffffffffffffffffffffffffffffff021916908373ffffffffffffffffffffffffffffffffffffffff1602179055508073ffffffffffffffffffffffffffffffffffffffff167f60fdfc03b0ea47a31b416678a5661aacabc9e9c83531c3af93613b3670bb963a60405160405180910390a280915050949350505050565b60005481565b6001602052816000526040600020818154811061026557600080fd5b906000526020600020016000915091509054906101000a900473ffffffffffffffffffffffffffffffffffffffff1681565b6060600160008373ffffffffffffffffffffffffffffffffffffffff1673ffffffffffffffffffffffffffffffffffffffff16815260200190815260200160002080548060200260200160405190810160405280929190818152602001828054801561035857602002820191906000526020600020905b8160009054906101000a900473ffffffffffffffffffffffffffffffffffffffff1673ffffffffffffffffffffffffffffffffffffffff168152602001906001019080831161030e575b50505050509050919050565b6141c6806108c683390190565b6000604051905090565b600080fd5b600080fd5b600080fd5b600080fd5b6000601f19601f8301169050919050565b7f4e487b7100000000000000000000000000000000000000000000000000000000600052604160045260246000fd5b6103d88261038f565b810181811067ffffffffffffffff821117156103f7576103f66103a0565b5b80604052505050565b600061040a610371565b905061041682826103cf565b919050565b600067ffffffffffffffff821115610436576104356103a0565b5b61043f8261038f565b9050602081019050919050565b82818337600083830152505050565b600061046e6104698461041b565b610400565b90508281526020810184848401111561048a5761048961038a565b5b61049584828561044c565b509392505050565b600082601f8301126104b2576104b1610385565b5b81356104c284826020860161045b565b91505092915050565b6000819050919050565b6104de816104cb565b81146104e957600080fd5b50565b6000813590506104fb816104d5565b92915050565b600073ffffffffffffffffffffffffffffffffffffffff82169050919050565b600061052c82610501565b9050919050565b61053c81610521565b811461054757600080fd5b50565b60008135905061055981610533565b92915050565b600080600080608085870312156105795761057861037b565b5b600085013567ffffffffffffffff81111561059757610596610380565b5b6105a38782880161049d565b94505060206105b4878288016104ec565b93505060406105c5878288016104ec565b92505060606105d68782880161054a565b91505092959194509250565b6105eb81610521565b82525050565b600060208201905061060660008301846105e2565b92915050565b610615816104cb565b82525050565b6000602082019050610630600083018461060c565b92915050565b6000806040838503121561064d5761064c61037b565b5b600061065b8582860161054a565b925050602061066c858286016104ec565b9150509250929050565b60006020828403121561068c5761068b61037b565b5b600061069a8482850161054a565b91505092915050565b600081519050919050565b600082825260208201905092915050565b6000819050602082019050919050565b6106d881610521565b82525050565b60006106ea83836106cf565b60208301905092915050565b6000602082019050919050565b600061070e826106a3565b61071881856106ae565b9350610723836106bf565b8060005b8381101561075457815161073b88826106de565b9750610746836106f6565b925050600181019050610727565b5085935050505092915050565b6000602082019050818103600083015261077b8184610703565b905092915050565b7f4e487b7100000000000000000000000000000000000000000000000000000000600052601160045260246000fd5b60006107bd826104cb565b91507fffffffffffffffffffffffffffffffffffffffffffffffffffffffffffffffff82036107ef576107ee610783565b5b600182019050919050565b600081519050919050565b600082825260208201905092915050565b60005b83811015610834578082015181840152602081019050610819565b60008484015250505050565b600061084b826107fa565b6108558185610805565b9350610865818560208601610816565b61086e8161038f565b840191505092915050565b600060808201905081810360008301526108938187610840565b90506108a2602083018661060c565b6108af604083018561060c565b6108bc60608301846105e2565b9594505050505056fe60806040526001600660006101000a81548160ff02191690831515021790555034801561002b57600080fd5b506040516141c63803806141c6833981810160405281019061004d9190610498565b836001908161005c9190610732565b50826002819055508160038190555081600481905550806000806101000a81548173ffffffffffffffffffffffffffffffffffffffff021916908373ffffffffffffffffffffffffffffffffffffffff1602179055506000306001846040516100c490610278565b6100d093929190610903565b604051809103906000f0801580156100ec573d6000803e3d6000fd5b5090506101346040518060400160405280600a81526020017f746865206d696e746572000000000000000000000000000000000000000000008152508261017f60201b60201c565b80600660016101000a81548173ffffffffffffffffffffffffffffffffffffffff021916908373ffffffffffffffffffffffffffffffffffffffff16021790555050505050506109ec565b61021d828260405160240161019592919061098d565b6040516020818303038152906040527f319af333000000000000000000000000000000000000000000000000000000007bffffffffffffffffffffffffffffffffffffffffffffffffffffffff19166020820180517bffffffffffffffffffffffffffffffffffffffffffffffffffffffff838183161783525050505061022160201b60201c565b5050565b6102428161023d61024560201b6107c51761026660201b60201c565b60201c565b50565b60006a636f6e736f6c652e6c6f679050600080835160208501845afa505050565b61028560201b6107e617819050919050565b6129e9806117dd83390190565b61028d6109bd565b565b6000604051905090565b600080fd5b600080fd5b600080fd5b600080fd5b6000601f19601f8301169050919050565b7f4e487b7100000000000000000000000000000000000000000000000000000000600052604160045260246000fd5b6102f6826102ad565b810181811067ffffffffffffffff82111715610315576103146102be565b5b80604052505050565b600061032861028f565b905061033482826102ed565b919050565b600067ffffffffffffffff821115610354576103536102be565b5b61035d826102ad565b9050602081019050919050565b60005b8381101561038857808201518184015260208101905061036d565b60008484015250505050565b60006103a76103a284610339565b61031e565b9050828152602081018484840111156103c3576103c26102a8565b5b6103ce84828561036a565b509392505050565b600082601f8301126103eb576103ea6102a3565b5b81516103fb848260208601610394565b91505092915050565b6000819050919050565b61041781610404565b811461042257600080fd5b50565b6000815190506104348161040e565b92915050565b600073ffffffffffffffffffffffffffffffffffffffff82169050919050565b60006104658261043a565b9050919050565b6104758161045a565b811461048057600080fd5b50565b6000815190506104928161046c565b92915050565b600080600080608085870312156104b2576104b1610299565b5b600085015167ffffffffffffffff8111156104d0576104cf61029e565b5b6104dc878288016103d6565b94505060206104ed87828801610425565b93505060406104fe87828801610425565b925050606061050f87828801610483565b91505092959194509250565b600081519050919050565b7f4e487b7100000000000000000000000000000000000000000000000000000000600052602260045260246000fd5b6000600282049050600182168061056d57607f821691505b6020821081036105805761057f610526565b5b50919050565b60008190508160005260206000209050919050565b60006020601f8301049050919050565b600082821b905092915050565b6000600883026105e87fffffffffffffffffffffffffffffffffffffffffffffffffffffffffffffffff826105ab565b6105f286836105ab565b95508019841693508086168417925050509392505050565b6000819050919050565b600061062f61062a61062584610404565b61060a565b610404565b9050919050565b6000819050919050565b61064983610614565b61065d61065582610636565b8484546105b8565b825550505050565b600090565b610672610665565b61067d818484610640565b505050565b5b818110156106a15761069660008261066a565b600181019050610683565b5050565b601f8211156106e6576106b781610586565b6106c08461059b565b810160208510156106cf578190505b6106e36106db8561059b565b830182610682565b50505b505050565b600082821c905092915050565b6000610709600019846008026106eb565b1980831691505092915050565b600061072283836106f8565b9150826002028217905092915050565b61073b8261051b565b67ffffffffffffffff811115610754576107536102be565b5b61075e8254610555565b6107698282856106a5565b600060209050601f83116001811461079c576000841561078a578287015190505b6107948582610716565b8655506107fc565b601f1984166107aa86610586565b60005b828110156107d2578489015182556001820191506020850194506020810190506107ad565b868310156107ef57848901516107eb601f8916826106f8565b8355505b6001600288020188555050505b505050505050565b61080d8161045a565b82525050565b600082825260208201905092915050565b6000815461083181610555565b61083b8186610813565b94506001821660008114610856576001811461086c5761089f565b60ff19831686528115156020028601935061089f565b61087585610586565b60005b8381101561089757815481890152600182019150602081019050610878565b808801955050505b50505092915050565b7f424f554e58410000000000000000000000000000000000000000000000000000600082015250565b60006108de600683610813565b91506108e9826108a8565b602082019050919050565b6108fd81610404565b82525050565b60006080820190506109186000830186610804565b818103602083015261092a8185610824565b9050818103604083015261093d816108d1565b905061094c60608301846108f4565b949350505050565b600061095f8261051b565b6109698185610813565b935061097981856020860161036a565b610982816102ad565b840191505092915050565b600060408201905081810360008301526109a78185610954565b90506109b66020830184610804565b9392505050565b7f4e487b7100000000000000000000000000000000000000000000000000000000600052605160045260246000fd5b610de2806109fb6000396000f3fe6080604052600436106100a75760003560e01c8063503303ae11610064578063503303ae1461017e578063520198a8146101a957806366bb8db4146101d45780638da5cb5b14610212578063ec8a06551461023d578063fb6c953714610268576100a7565b806306fdde03146100ac5780631209b1f6146100d757806322f3e2d4146101025780632f3666371461012d5780633548002a146101495780633ccfd60b14610174575b600080fd5b3480156100b857600080fd5b506100c161027f565b6040516100ce9190610880565b60405180910390f35b3480156100e357600080fd5b506100ec61030d565b6040516100f991906108bb565b60405180910390f35b34801561010e57600080fd5b50610117610313565b60405161012491906108f1565b60405180910390f35b6101476004803603810190610142919061093d565b610326565b005b34801561015557600080fd5b5061015e6105cd565b60405161016b91906108bb565b60405180910390f35b61017c6105d3565b005b34801561018a57600080fd5b5061019361063c565b6040516101a091906109ab565b60405180910390f35b3480156101b557600080fd5b506101be610662565b6040516101cb91906108bb565b60405180910390f35b3480156101e057600080fd5b506101fb60048036038101906101f691906109f2565b6106ac565b604051610209929190610a1f565b60405180910390f35b34801561021e57600080fd5b506102276106f0565b60405161023491906109ab565b60405180910390f35b34801561024957600080fd5b50610252610714565b60405161025f91906108bb565b60405180910390f35b34801561027457600080fd5b5061027d61071a565b005b6001805461028c90610a77565b80601f01602080910402602001604051908101604052809291908181526020018280546102b890610a77565b80156103055780601f106102da57610100808354040283529160200191610305565b820191906000526020600020905b8154815290600101906020018083116102e857829003601f168201915b505050505081565b60025481565b600660009054906101000a900460ff1681565b600660009054906101000a900460ff16610375576040517f08c379a000000000000000000000000000000000000000000000000000000000815260040161036c90610b1a565b60405180910390fd5b806002546103839190610b69565b3410156103c5576040517f08c379a00000000000000000000000000000000000000000000000000000000081526004016103bc90610bf7565b60405180910390fd5b80600454101561040a576040517f08c379a000000000000000000000000000000000000000000000000000000000815260040161040190610c63565b60405180910390fd5b806004546104189190610c83565b6004819055506000600660019054906101000a900473ffffffffffffffffffffffffffffffffffffffff16905060005b828110156104c8578173ffffffffffffffffffffffffffffffffffffffff166340d097c3336040518263ffffffff1660e01b815260040161048991906109ab565b600060405180830381600087803b1580156104a357600080fd5b505af11580156104b7573d6000803e3d6000fd5b505050508080600101915050610448565b5081600560003373ffffffffffffffffffffffffffffffffffffffff1673ffffffffffffffffffffffffffffffffffffffff168152602001908152602001600020600101600082825461051b9190610cb7565b9250508190555033600560003373ffffffffffffffffffffffffffffffffffffffff1673ffffffffffffffffffffffffffffffffffffffff16815260200190815260200160002060000160006101000a81548173ffffffffffffffffffffffffffffffffffffffff021916908373ffffffffffffffffffffffffffffffffffffffff1602179055506000600454036105c9576000600660006101000a81548160ff0219169083151502179055505b5050565b60045481565b60008054906101000a900473ffffffffffffffffffffffffffffffffffffffff1673ffffffffffffffffffffffffffffffffffffffff166108fc479081150290604051600060405180830381858888f19350505050158015610639573d6000803e3d6000fd5b50565b600660019054906101000a900473ffffffffffffffffffffffffffffffffffffffff1681565b6000600560003373ffffffffffffffffffffffffffffffffffffffff1673ffffffffffffffffffffffffffffffffffffffff16815260200190815260200160002060010154905090565b60056020528060005260406000206000915090508060000160009054906101000a900473ffffffffffffffffffffffffffffffffffffffff16908060010154905082565b60008054906101000a900473ffffffffffffffffffffffffffffffffffffffff1681565b60035481565b60008054906101000a900473ffffffffffffffffffffffffffffffffffffffff1673ffffffffffffffffffffffffffffffffffffffff163373ffffffffffffffffffffffffffffffffffffffff16146107a8576040517f08c379a000000000000000000000000000000000000000000000000000000000815260040161079f90610d5d565b60405180910390fd5b6000600660006101000a81548160ff021916908315150217905550565b60006a636f6e736f6c652e6c6f679050600080835160208501845afa505050565b6107ee610d7d565b565b600081519050919050565b600082825260208201905092915050565b60005b8381101561082a57808201518184015260208101905061080f565b60008484015250505050565b6000601f19601f8301169050919050565b6000610852826107f0565b61085c81856107fb565b935061086c81856020860161080c565b61087581610836565b840191505092915050565b6000602082019050818103600083015261089a8184610847565b905092915050565b6000819050919050565b6108b5816108a2565b82525050565b60006020820190506108d060008301846108ac565b92915050565b60008115159050919050565b6108eb816108d6565b82525050565b600060208201905061090660008301846108e2565b92915050565b600080fd5b61091a816108a2565b811461092557600080fd5b50565b60008135905061093781610911565b92915050565b6000602082840312156109535761095261090c565b5b600061096184828501610928565b91505092915050565b600073ffffffffffffffffffffffffffffffffffffffff82169050919050565b60006109958261096a565b9050919050565b6109a58161098a565b82525050565b60006020820190506109c0600083018461099c565b92915050565b6109cf8161098a565b81146109da57600080fd5b50565b6000813590506109ec816109c6565b92915050565b600060208284031215610a0857610a0761090c565b5b6000610a16848285016109dd565b91505092915050565b6000604082019050610a34600083018561099c565b610a4160208301846108ac565b9392505050565b7f4e487b7100000000000000000000000000000000000000000000000000000000600052602260045260246000fd5b60006002820490506001821680610a8f57607f821691505b602082108103610aa257610aa1610a48565b5b50919050565b7f4576656e74206861732065697468657220656e646564206f722063616e63656c60008201527f6c65640000000000000000000000000000000000000000000000000000000000602082015250565b6000610b046023836107fb565b9150610b0f82610aa8565b604082019050919050565b60006020820190508181036000830152610b3381610af7565b9050919050565b7f4e487b7100000000000000000000000000000000000000000000000000000000600052601160045260246000fd5b6000610b74826108a2565b9150610b7f836108a2565b9250828202610b8d816108a2565b91508282048414831517610ba457610ba3610b3a565b5b5092915050565b7f496e73756666696369656e742066756e64730000000000000000000000000000600082015250565b6000610be16012836107fb565b9150610bec82610bab565b602082019050919050565b60006020820190508181036000830152610c1081610bd4565b9050919050565b7f4e6f207469636b6574732072656d61696e696e67000000000000000000000000600082015250565b6000610c4d6014836107fb565b9150610c5882610c17565b602082019050919050565b60006020820190508181036000830152610c7c81610c40565b9050919050565b6000610c8e826108a2565b9150610c99836108a2565b9250828203905081811115610cb157610cb0610b3a565b5b92915050565b6000610cc2826108a2565b9150610ccd836108a2565b9250828201905080821115610ce557610ce4610b3a565b5b92915050565b7f596f7520617265206e6f7420616c6c6f77656420746f206361727279206f757460008201527f207468697320616374696f6e0000000000000000000000000000000000000000602082015250565b6000610d47602c836107fb565b9150610d5282610ceb565b604082019050919050565b60006020820190508181036000830152610d7681610d3a565b9050919050565b7f4e487b7100000000000000000000000000000000000000000000000000000000600052605160045260246000fdfea2646970667358221220b32259d366883ff0e2833ddfbf063d5c972e5a594b91e8d38e6b085b94775aa164736f6c634300081b00336080604052620186a060085534801561001757600080fd5b506040516129e93803806129e9833981810160405281019061003991906103c7565b838383816000908161004b919061067d565b50806001908161005b919061067d565b505050600073ffffffffffffffffffffffffffffffffffffffff168173ffffffffffffffffffffffffffffffffffffffff16036100d05760006040517f1e4fbdf70000000000000000000000000000000000000000000000000000000081526004016100c7919061075e565b60405180910390fd5b6100df816100f860201b60201c565b5080600881905550600060078190555050505050610779565b6000600660009054906101000a900473ffffffffffffffffffffffffffffffffffffffff16905081600660006101000a81548173ffffffffffffffffffffffffffffffffffffffff021916908373ffffffffffffffffffffffffffffffffffffffff1602179055508173ffffffffffffffffffffffffffffffffffffffff168173ffffffffffffffffffffffffffffffffffffffff167f8be0079c531659141344cd1fd0a4f28419497f9722a3daafe3b4186f6b6457e060405160405180910390a35050565b6000604051905090565b600080fd5b600080fd5b600073ffffffffffffffffffffffffffffffffffffffff82169050919050565b60006101fd826101d2565b9050919050565b61020d816101f2565b811461021857600080fd5b50565b60008151905061022a81610204565b92915050565b600080fd5b600080fd5b6000601f19601f8301169050919050565b7f4e487b7100000000000000000000000000000000000000000000000000000000600052604160045260246000fd5b6102838261023a565b810181811067ffffffffffffffff821117156102a2576102a161024b565b5b80604052505050565b60006102b56101be565b90506102c1828261027a565b919050565b600067ffffffffffffffff8211156102e1576102e061024b565b5b6102ea8261023a565b9050602081019050919050565b60005b838110156103155780820151818401526020810190506102fa565b60008484015250505050565b600061033461032f846102c6565b6102ab565b9050828152602081018484840111156103505761034f610235565b5b61035b8482856102f7565b509392505050565b600082601f83011261037857610377610230565b5b8151610388848260208601610321565b91505092915050565b6000819050919050565b6103a481610391565b81146103af57600080fd5b50565b6000815190506103c18161039b565b92915050565b600080600080608085870312156103e1576103e06101c8565b5b60006103ef8782880161021b565b945050602085015167ffffffffffffffff8111156104105761040f6101cd565b5b61041c87828801610363565b935050604085015167ffffffffffffffff81111561043d5761043c6101cd565b5b61044987828801610363565b925050606061045a878288016103b2565b91505092959194509250565b600081519050919050565b7f4e487b7100000000000000000000000000000000000000000000000000000000600052602260045260246000fd5b600060028204905060018216806104b857607f821691505b6020821081036104cb576104ca610471565b5b50919050565b60008190508160005260206000209050919050565b60006020601f8301049050919050565b600082821b905092915050565b6000600883026105337fffffffffffffffffffffffffffffffffffffffffffffffffffffffffffffffff826104f6565b61053d86836104f6565b95508019841693508086168417925050509392505050565b6000819050919050565b600061057a61057561057084610391565b610555565b610391565b9050919050565b6000819050919050565b6105948361055f565b6105a86105a082610581565b848454610503565b825550505050565b600090565b6105bd6105b0565b6105c881848461058b565b505050565b5b818110156105ec576105e16000826105b5565b6001810190506105ce565b5050565b601f82111561063157610602816104d1565b61060b846104e6565b8101602085101561061a578190505b61062e610626856104e6565b8301826105cd565b50505b505050565b600082821c905092915050565b600061065460001984600802610636565b1980831691505092915050565b600061066d8383610643565b9150826002028217905092915050565b61068682610466565b67ffffffffffffffff81111561069f5761069e61024b565b5b6106a982546104a0565b6106b48282856105f0565b600060209050601f8311600181146106e757600084156106d5578287015190505b6106df8582610661565b865550610747565b601f1984166106f5866104d1565b60005b8281101561071d578489015182556001820191506020850194506020810190506106f8565b8683101561073a5784890151610736601f891682610643565b8355505b6001600288020188555050505b505050505050565b610758816101f2565b82525050565b6000602082019050610773600083018461074f565b92915050565b612261806107886000396000f3fe608060405234801561001057600080fd5b506004361061012c5760003560e01c806370a08231116100ad578063b88d4fde11610071578063b88d4fde1461031b578063c87b56dd14610337578063d5abeb0114610367578063e985e9c514610385578063f2fde38b146103b55761012c565b806370a0823114610289578063715018a6146102b95780638da5cb5b146102c357806395d89b41146102e1578063a22cb465146102ff5761012c565b806340d097c3116100f457806340d097c3146101e757806342842e0e1461020357806342966c681461021f5780634f02c4201461023b5780636352211e146102595761012c565b806301ffc9a71461013157806306fdde0314610161578063081812fc1461017f578063095ea7b3146101af57806323b872dd146101cb575b600080fd5b61014b600480360381019061014691906119dc565b6103d1565b6040516101589190611a24565b60405180910390f35b6101696103e3565b6040516101769190611acf565b60405180910390f35b61019960048036038101906101949190611b27565b610475565b6040516101a69190611b95565b60405180910390f35b6101c960048036038101906101c49190611bdc565b610491565b005b6101e560048036038101906101e09190611c1c565b6104a7565b005b61020160048036038101906101fc9190611c6f565b6105a9565b005b61021d60048036038101906102189190611c1c565b61061f565b005b61023960048036038101906102349190611b27565b61063f565b005b610243610656565b6040516102509190611cab565b60405180910390f35b610273600480360381019061026e9190611b27565b61065c565b6040516102809190611b95565b60405180910390f35b6102a3600480360381019061029e9190611c6f565b61066e565b6040516102b09190611cab565b60405180910390f35b6102c1610728565b005b6102cb61073c565b6040516102d89190611b95565b60405180910390f35b6102e9610766565b6040516102f69190611acf565b60405180910390f35b61031960048036038101906103149190611cf2565b6107f8565b005b61033560048036038101906103309190611e67565b61080e565b005b610351600480360381019061034c9190611b27565b61082b565b60405161035e9190611acf565b60405180910390f35b61036f61083d565b60405161037c9190611cab565b60405180910390f35b61039f600480360381019061039a9190611eea565b610843565b6040516103ac9190611a24565b60405180910390f35b6103cf60048036038101906103ca9190611c6f565b6108d7565b005b60006103dc8261095d565b9050919050565b6060600080546103f290611f59565b80601f016020809104026020016040519081016040528092919081815260200182805461041e90611f59565b801561046b5780601f106104405761010080835404028352916020019161046b565b820191906000526020600020905b81548152906001019060200180831161044e57829003601f168201915b5050505050905090565b600061048082610a3f565b5061048a82610ac7565b9050919050565b6104a3828261049e610b04565b610b0c565b5050565b600073ffffffffffffffffffffffffffffffffffffffff168273ffffffffffffffffffffffffffffffffffffffff16036105195760006040517f64a0ae920000000000000000000000000000000000000000000000000000000081526004016105109190611b95565b60405180910390fd5b600061052d8383610528610b04565b610b1e565b90508373ffffffffffffffffffffffffffffffffffffffff168173ffffffffffffffffffffffffffffffffffffffff16146105a3578382826040517f64283d7b00000000000000000000000000000000000000000000000000000000815260040161059a93929190611f8a565b60405180910390fd5b50505050565b6105b1610d38565b600854600754106105f7576040517f08c379a00000000000000000000000000000000000000000000000000000000081526004016105ee9061200d565b60405180910390fd5b60006001600754610608919061205c565b90506106148282610dbf565b806007819055505050565b61063a8383836040518060200160405280600081525061080e565b505050565b61065260008261064d610b04565b610b1e565b5050565b60075481565b600061066782610a3f565b9050919050565b60008073ffffffffffffffffffffffffffffffffffffffff168273ffffffffffffffffffffffffffffffffffffffff16036106e15760006040517f89c62b640000000000000000000000000000000000000000000000000000000081526004016106d89190611b95565b60405180910390fd5b600360008373ffffffffffffffffffffffffffffffffffffffff1673ffffffffffffffffffffffffffffffffffffffff168152602001908152602001600020549050919050565b610730610d38565b61073a6000610ddd565b565b6000600660009054906101000a900473ffffffffffffffffffffffffffffffffffffffff16905090565b60606001805461077590611f59565b80601f01602080910402602001604051908101604052809291908181526020018280546107a190611f59565b80156107ee5780601f106107c3576101008083540402835291602001916107ee565b820191906000526020600020905b8154815290600101906020018083116107d157829003601f168201915b5050505050905090565b61080a610803610b04565b8383610ea3565b5050565b6108198484846104a7565b61082584848484611012565b50505050565b6060610836826111c9565b9050919050565b60085481565b6000600560008473ffffffffffffffffffffffffffffffffffffffff1673ffffffffffffffffffffffffffffffffffffffff16815260200190815260200160002060008373ffffffffffffffffffffffffffffffffffffffff1673ffffffffffffffffffffffffffffffffffffffff16815260200190815260200160002060009054906101000a900460ff16905092915050565b6108df610d38565b600073ffffffffffffffffffffffffffffffffffffffff168173ffffffffffffffffffffffffffffffffffffffff16036109515760006040517f1e4fbdf70000000000000000000000000000000000000000000000000000000081526004016109489190611b95565b60405180910390fd5b61095a81610ddd565b50565b60007f80ac58cd000000000000000000000000000000000000000000000000000000007bffffffffffffffffffffffffffffffffffffffffffffffffffffffff1916827bffffffffffffffffffffffffffffffffffffffffffffffffffffffff19161480610a2857507f5b5e139f000000000000000000000000000000000000000000000000000000007bffffffffffffffffffffffffffffffffffffffffffffffffffffffff1916827bffffffffffffffffffffffffffffffffffffffffffffffffffffffff1916145b80610a385750610a3782611232565b5b9050919050565b600080610a4b8361129c565b9050600073ffffffffffffffffffffffffffffffffffffffff168173ffffffffffffffffffffffffffffffffffffffff1603610abe57826040517f7e273289000000000000000000000000000000000000000000000000000000008152600401610ab59190611cab565b60405180910390fd5b80915050919050565b60006004600083815260200190815260200160002060009054906101000a900473ffffffffffffffffffffffffffffffffffffffff169050919050565b600033905090565b610b1983838360016112d9565b505050565b600080610b2a8461129c565b9050600073ffffffffffffffffffffffffffffffffffffffff168373ffffffffffffffffffffffffffffffffffffffff1614610b6c57610b6b81848661149e565b5b600073ffffffffffffffffffffffffffffffffffffffff168173ffffffffffffffffffffffffffffffffffffffff1614610bfd57610bae6000856000806112d9565b6001600360008373ffffffffffffffffffffffffffffffffffffffff1673ffffffffffffffffffffffffffffffffffffffff168152602001908152602001600020600082825403925050819055505b600073ffffffffffffffffffffffffffffffffffffffff168573ffffffffffffffffffffffffffffffffffffffff1614610c80576001600360008773ffffffffffffffffffffffffffffffffffffffff1673ffffffffffffffffffffffffffffffffffffffff168152602001908152602001600020600082825401925050819055505b846002600086815260200190815260200160002060006101000a81548173ffffffffffffffffffffffffffffffffffffffff021916908373ffffffffffffffffffffffffffffffffffffffff160217905550838573ffffffffffffffffffffffffffffffffffffffff168273ffffffffffffffffffffffffffffffffffffffff167fddf252ad1be2c89b69c2b068fc378daa952ba7f163c4a11628f55a4df523b3ef60405160405180910390a4809150509392505050565b610d40610b04565b73ffffffffffffffffffffffffffffffffffffffff16610d5e61073c565b73ffffffffffffffffffffffffffffffffffffffff1614610dbd57610d81610b04565b6040517f118cdaa7000000000000000000000000000000000000000000000000000000008152600401610db49190611b95565b60405180910390fd5b565b610dd9828260405180602001604052806000815250611562565b5050565b6000600660009054906101000a900473ffffffffffffffffffffffffffffffffffffffff16905081600660006101000a81548173ffffffffffffffffffffffffffffffffffffffff021916908373ffffffffffffffffffffffffffffffffffffffff1602179055508173ffffffffffffffffffffffffffffffffffffffff168173ffffffffffffffffffffffffffffffffffffffff167f8be0079c531659141344cd1fd0a4f28419497f9722a3daafe3b4186f6b6457e060405160405180910390a35050565b600073ffffffffffffffffffffffffffffffffffffffff168273ffffffffffffffffffffffffffffffffffffffff1603610f1457816040517f5b08ba18000000000000000000000000000000000000000000000000000000008152600401610f0b9190611b95565b60405180910390fd5b80600560008573ffffffffffffffffffffffffffffffffffffffff1673ffffffffffffffffffffffffffffffffffffffff16815260200190815260200160002060008473ffffffffffffffffffffffffffffffffffffffff1673ffffffffffffffffffffffffffffffffffffffff16815260200190815260200160002060006101000a81548160ff0219169083151502179055508173ffffffffffffffffffffffffffffffffffffffff168373ffffffffffffffffffffffffffffffffffffffff167f17307eab39ab6107e8899845ad3d59bd9653f200f220920489ca2b5937696c31836040516110059190611a24565b60405180910390a3505050565b60008373ffffffffffffffffffffffffffffffffffffffff163b11156111c3578273ffffffffffffffffffffffffffffffffffffffff1663150b7a02611056610b04565b8685856040518563ffffffff1660e01b815260040161107894939291906120e5565b6020604051808303816000875af19250505080156110b457506040513d601f19601f820116820180604052508101906110b19190612146565b60015b611138573d80600081146110e4576040519150601f19603f3d011682016040523d82523d6000602084013e6110e9565b606091505b50600081510361113057836040517f64a0ae920000000000000000000000000000000000000000000000000000000081526004016111279190611b95565b60405180910390fd5b805181602001fd5b63150b7a0260e01b7bffffffffffffffffffffffffffffffffffffffffffffffffffffffff1916817bffffffffffffffffffffffffffffffffffffffffffffffffffffffff1916146111c157836040517f64a0ae920000000000000000000000000000000000000000000000000000000081526004016111b89190611b95565b60405180910390fd5b505b50505050565b60606111d482610a3f565b5060006111df61157e565b905060008151116111ff576040518060200160405280600081525061122a565b8061120984611595565b60405160200161121a9291906121af565b6040516020818303038152906040525b915050919050565b60007f01ffc9a7000000000000000000000000000000000000000000000000000000007bffffffffffffffffffffffffffffffffffffffffffffffffffffffff1916827bffffffffffffffffffffffffffffffffffffffffffffffffffffffff1916149050919050565b60006002600083815260200190815260200160002060009054906101000a900473ffffffffffffffffffffffffffffffffffffffff169050919050565b80806113125750600073ffffffffffffffffffffffffffffffffffffffff168273ffffffffffffffffffffffffffffffffffffffff1614155b1561144657600061132284610a3f565b9050600073ffffffffffffffffffffffffffffffffffffffff168373ffffffffffffffffffffffffffffffffffffffff161415801561138d57508273ffffffffffffffffffffffffffffffffffffffff168173ffffffffffffffffffffffffffffffffffffffff1614155b80156113a0575061139e8184610843565b155b156113e257826040517fa9fbf51f0000000000000000000000000000000000000000000000000000000081526004016113d99190611b95565b60405180910390fd5b811561144457838573ffffffffffffffffffffffffffffffffffffffff168273ffffffffffffffffffffffffffffffffffffffff167f8c5be1e5ebec7d5bd14f71427d1e84f3dd0314c0f7b2291e5b200ac8c7c3b92560405160405180910390a45b505b836004600085815260200190815260200160002060006101000a81548173ffffffffffffffffffffffffffffffffffffffff021916908373ffffffffffffffffffffffffffffffffffffffff16021790555050505050565b6114a9838383611663565b61155d57600073ffffffffffffffffffffffffffffffffffffffff168373ffffffffffffffffffffffffffffffffffffffff160361151e57806040517f7e2732890000000000000000000000000000000000000000000000000000000081526004016115159190611cab565b60405180910390fd5b81816040517f177e802f0000000000000000000000000000000000000000000000000000000081526004016115549291906121d3565b60405180910390fd5b505050565b61156c8383611724565b6115796000848484611012565b505050565b606060405180602001604052806000815250905090565b6060600060016115a48461181d565b01905060008167ffffffffffffffff8111156115c3576115c2611d3c565b5b6040519080825280601f01601f1916602001820160405280156115f55781602001600182028036833780820191505090505b509050600082602001820190505b600115611658578080600190039150507f3031323334353637383961626364656600000000000000000000000000000000600a86061a8153600a858161164c5761164b6121fc565b5b04945060008503611603575b819350505050919050565b60008073ffffffffffffffffffffffffffffffffffffffff168373ffffffffffffffffffffffffffffffffffffffff161415801561171b57508273ffffffffffffffffffffffffffffffffffffffff168473ffffffffffffffffffffffffffffffffffffffff1614806116dc57506116db8484610843565b5b8061171a57508273ffffffffffffffffffffffffffffffffffffffff1661170283610ac7565b73ffffffffffffffffffffffffffffffffffffffff16145b5b90509392505050565b600073ffffffffffffffffffffffffffffffffffffffff168273ffffffffffffffffffffffffffffffffffffffff16036117965760006040517f64a0ae9200000000000000000000000000000000000000000000000000000000815260040161178d9190611b95565b60405180910390fd5b60006117a483836000610b1e565b9050600073ffffffffffffffffffffffffffffffffffffffff168173ffffffffffffffffffffffffffffffffffffffff16146118185760006040517f73c6ac6e00000000000000000000000000000000000000000000000000000000815260040161180f9190611b95565b60405180910390fd5b505050565b600080600090507a184f03e93ff9f4daa797ed6e38ed64bf6a1f010000000000000000831061187b577a184f03e93ff9f4daa797ed6e38ed64bf6a1f0100000000000000008381611871576118706121fc565b5b0492506040810190505b6d04ee2d6d415b85acef810000000083106118b8576d04ee2d6d415b85acef810000000083816118ae576118ad6121fc565b5b0492506020810190505b662386f26fc1000083106118e757662386f26fc1000083816118dd576118dc6121fc565b5b0492506010810190505b6305f5e1008310611910576305f5e1008381611906576119056121fc565b5b0492506008810190505b612710831061193557612710838161192b5761192a6121fc565b5b0492506004810190505b60648310611958576064838161194e5761194d6121fc565b5b0492506002810190505b600a8310611967576001810190505b80915050919050565b6000604051905090565b600080fd5b600080fd5b60007fffffffff0000000000000000000000000000000000000000000000000000000082169050919050565b6119b981611984565b81146119c457600080fd5b50565b6000813590506119d6816119b0565b92915050565b6000602082840312156119f2576119f161197a565b5b6000611a00848285016119c7565b91505092915050565b60008115159050919050565b611a1e81611a09565b82525050565b6000602082019050611a396000830184611a15565b92915050565b600081519050919050565b600082825260208201905092915050565b60005b83811015611a79578082015181840152602081019050611a5e565b60008484015250505050565b6000601f19601f8301169050919050565b6000611aa182611a3f565b611aab8185611a4a565b9350611abb818560208601611a5b565b611ac481611a85565b840191505092915050565b60006020820190508181036000830152611ae98184611a96565b905092915050565b6000819050919050565b611b0481611af1565b8114611b0f57600080fd5b50565b600081359050611b2181611afb565b92915050565b600060208284031215611b3d57611b3c61197a565b5b6000611b4b84828501611b12565b91505092915050565b600073ffffffffffffffffffffffffffffffffffffffff82169050919050565b6000611b7f82611b54565b9050919050565b611b8f81611b74565b82525050565b6000602082019050611baa6000830184611b86565b92915050565b611bb981611b74565b8114611bc457600080fd5b50565b600081359050611bd681611bb0565b92915050565b60008060408385031215611bf357611bf261197a565b5b6000611c0185828601611bc7565b9250506020611c1285828601611b12565b9150509250929050565b600080600060608486031215611c3557611c3461197a565b5b6000611c4386828701611bc7565b9350506020611c5486828701611bc7565b9250506040611c6586828701611b12565b9150509250925092565b600060208284031215611c8557611c8461197a565b5b6000611c9384828501611bc7565b91505092915050565b611ca581611af1565b82525050565b6000602082019050611cc06000830184611c9c565b92915050565b611ccf81611a09565b8114611cda57600080fd5b50565b600081359050611cec81611cc6565b92915050565b60008060408385031215611d0957611d0861197a565b5b6000611d1785828601611bc7565b9250506020611d2885828601611cdd565b9150509250929050565b600080fd5b600080fd5b7f4e487b7100000000000000000000000000000000000000000000000000000000600052604160045260246000fd5b611d7482611a85565b810181811067ffffffffffffffff82111715611d9357611d92611d3c565b5b80604052505050565b6000611da6611970565b9050611db28282611d6b565b919050565b600067ffffffffffffffff821115611dd257611dd1611d3c565b5b611ddb82611a85565b9050602081019050919050565b82818337600083830152505050565b6000611e0a611e0584611db7565b611d9c565b905082815260208101848484011115611e2657611e25611d37565b5b611e31848285611de8565b509392505050565b600082601f830112611e4e57611e4d611d32565b5b8135611e5e848260208601611df7565b91505092915050565b60008060008060808587031215611e8157611e8061197a565b5b6000611e8f87828801611bc7565b9450506020611ea087828801611bc7565b9350506040611eb187828801611b12565b925050606085013567ffffffffffffffff811115611ed257611ed161197f565b5b611ede87828801611e39565b91505092959194509250565b60008060408385031215611f0157611f0061197a565b5b6000611f0f85828601611bc7565b9250506020611f2085828601611bc7565b9150509250929050565b7f4e487b7100000000000000000000000000000000000000000000000000000000600052602260045260246000fd5b60006002820490506001821680611f7157607f821691505b602082108103611f8457611f83611f2a565b5b50919050565b6000606082019050611f9f6000830186611b86565b611fac6020830185611c9c565b611fb96040830184611b86565b949350505050565b7f5469636b6574732061726520736f6c64206f7574000000000000000000000000600082015250565b6000611ff7601483611a4a565b915061200282611fc1565b602082019050919050565b6000602082019050818103600083015261202681611fea565b9050919050565b7f4e487b7100000000000000000000000000000000000000000000000000000000600052601160045260246000fd5b600061206782611af1565b915061207283611af1565b925082820190508082111561208a5761208961202d565b5b92915050565b600081519050919050565b600082825260208201905092915050565b60006120b782612090565b6120c1818561209b565b93506120d1818560208601611a5b565b6120da81611a85565b840191505092915050565b60006080820190506120fa6000830187611b86565b6121076020830186611b86565b6121146040830185611c9c565b818103606083015261212681846120ac565b905095945050505050565b600081519050612140816119b0565b92915050565b60006020828403121561215c5761215b61197a565b5b600061216a84828501612131565b91505092915050565b600081905092915050565b600061218982611a3f565b6121938185612173565b93506121a3818560208601611a5b565b80840191505092915050565b60006121bb828561217e565b91506121c7828461217e565b91508190509392505050565b60006040820190506121e86000830185611b86565b6121f56020830184611c9c565b9392505050565b7f4e487b7100000000000000000000000000000000000000000000000000000000600052601260045260246000fdfea264697066735822122082f6d87d40723d68fa1d78318fddbc1f52473448f0c3449849c318fa9238327f64736f6c634300081b0033a2646970667358221220471c35c5b5169cc77301de0656d8cc6351cf6dee040637fa4018dbbd237d457564736f6c634300081b0033",
  "linkReferences": {},
  "deployedLinkReferences": {}
}