{
  "_format": "hh-sol-artifact-1",
  "contractName": "BounxaEventFactory",
  "sourceName": "contracts/BounxaEventFactory.sol",
  "abi": [
    {
      "inputs": [
        {
          "internalType": "string",
          "name": "_visibility",
          "type": "string"
        },
        {
          "internalType": "uint256",
          "name": "_startTime",
          "type": "uint256"
        },
        {
          "internalType": "uint256",
          "name": "_endTime",
          "type": "uint256"
        },
        {
          "internalType": "string",
          "name": "_location",
          "type": "string"
        },
        {
          "internalType": "string",
          "name": "_description",
          "type": "string"
        },
        {
          "internalType": "string",
          "name": "_image",
          "type": "string"
        },
        {
          "internalType": "string",
          "name": "_name",
          "type": "string"
        },
        {
          "internalType": "uint256",
          "name": "_ticketPrice",
          "type": "uint256"
        },
        {
          "internalType": "uint256",
          "name": "_ticketQuantity",
          "type": "uint256"
        }
      ],
      "name": "createBounxaEvent",
      "outputs": [
        {
          "internalType": "address",
          "name": "",
          "type": "address"
        }
      ],
      "stateMutability": "nonpayable",
      "type": "function"
    },
    {
      "inputs": [
        {
          "internalType": "address",
          "name": "",
          "type": "address"
        },
        {
          "internalType": "uint256",
          "name": "",
          "type": "uint256"
        }
      ],
      "name": "deployedEvents",
      "outputs": [
        {
          "internalType": "address",
          "name": "",
          "type": "address"
        }
      ],
      "stateMutability": "view",
      "type": "function"
    },
    {
      "inputs": [],
      "name": "eventCount",
      "outputs": [
        {
          "internalType": "uint256",
          "name": "",
          "type": "uint256"
        }
      ],
      "stateMutability": "view",
      "type": "function"
    },
    {
      "inputs": [
        {
          "internalType": "address",
          "name": "userAddress",
          "type": "address"
        }
      ],
      "name": "getEvents",
      "outputs": [
        {
          "internalType": "address[]",
          "name": "",
          "type": "address[]"
        }
      ],
      "stateMutability": "view",
      "type": "function"
    }
  ],
  "bytecode": "0x608060405260008055348015601357600080fd5b506123ea806100236000396000f3fe608060405234801561001057600080fd5b506004361061004c5760003560e01c8063047f8c121461005157806371be2e4a146100815780637fff0dc21461009f578063a4c8b6e3146100cf575b600080fd5b61006b600480360381019061006691906104d3565b6100ff565b604051610078919061066a565b60405180910390f35b610089610215565b6040516100969190610694565b60405180910390f35b6100b960048036038101906100b491906106db565b61021b565b6040516100c6919061066a565b60405180910390f35b6100e960048036038101906100e4919061071b565b610269565b6040516100f69190610806565b60405180910390f35b6000806000815461010f90610857565b9190508190555060008a8a8a8a8a8a8a8a8a6000543360405161013190610336565b6101459b9a9998979695949392919061091e565b604051809103906000f080158015610161573d6000803e3d6000fd5b509050600160003373ffffffffffffffffffffffffffffffffffffffff1673ffffffffffffffffffffffffffffffffffffffff168152602001908152602001600020819080600181540180825580915050600190039060005260206000200160009091909190916101000a81548173ffffffffffffffffffffffffffffffffffffffff021916908373ffffffffffffffffffffffffffffffffffffffff160217905550809150509998505050505050505050565b60005481565b6001602052816000526040600020818154811061023757600080fd5b906000526020600020016000915091509054906101000a900473ffffffffffffffffffffffffffffffffffffffff1681565b6060600160008373ffffffffffffffffffffffffffffffffffffffff1673ffffffffffffffffffffffffffffffffffffffff16815260200190815260200160002080548060200260200160405190810160405280929190818152602001828054801561032a57602002820191906000526020600020905b8160009054906101000a900473ffffffffffffffffffffffffffffffffffffffff1673ffffffffffffffffffffffffffffffffffffffff16815260200190600101908083116102e0575b50505050509050919050565b6119c8806109ed83390190565b6000604051905090565b600080fd5b600080fd5b600080fd5b600080fd5b6000601f19601f8301169050919050565b7f4e487b7100000000000000000000000000000000000000000000000000000000600052604160045260246000fd5b6103aa82610361565b810181811067ffffffffffffffff821117156103c9576103c8610372565b5b80604052505050565b60006103dc610343565b90506103e882826103a1565b919050565b600067ffffffffffffffff82111561040857610407610372565b5b61041182610361565b9050602081019050919050565b82818337600083830152505050565b600061044061043b846103ed565b6103d2565b90508281526020810184848401111561045c5761045b61035c565b5b61046784828561041e565b509392505050565b600082601f83011261048457610483610357565b5b813561049484826020860161042d565b91505092915050565b6000819050919050565b6104b08161049d565b81146104bb57600080fd5b50565b6000813590506104cd816104a7565b92915050565b60008060008060008060008060006101208a8c0312156104f6576104f561034d565b5b60008a013567ffffffffffffffff81111561051457610513610352565b5b6105208c828d0161046f565b99505060206105318c828d016104be565b98505060406105428c828d016104be565b97505060608a013567ffffffffffffffff81111561056357610562610352565b5b61056f8c828d0161046f565b96505060808a013567ffffffffffffffff8111156105905761058f610352565b5b61059c8c828d0161046f565b95505060a08a013567ffffffffffffffff8111156105bd576105bc610352565b5b6105c98c828d0161046f565b94505060c08a013567ffffffffffffffff8111156105ea576105e9610352565b5b6105f68c828d0161046f565b93505060e06106078c828d016104be565b9250506101006106198c828d016104be565b9150509295985092959850929598565b600073ffffffffffffffffffffffffffffffffffffffff82169050919050565b600061065482610629565b9050919050565b61066481610649565b82525050565b600060208201905061067f600083018461065b565b92915050565b61068e8161049d565b82525050565b60006020820190506106a96000830184610685565b92915050565b6106b881610649565b81146106c357600080fd5b50565b6000813590506106d5816106af565b92915050565b600080604083850312156106f2576106f161034d565b5b6000610700858286016106c6565b9250506020610711858286016104be565b9150509250929050565b6000602082840312156107315761073061034d565b5b600061073f848285016106c6565b91505092915050565b600081519050919050565b600082825260208201905092915050565b6000819050602082019050919050565b61077d81610649565b82525050565b600061078f8383610774565b60208301905092915050565b6000602082019050919050565b60006107b382610748565b6107bd8185610753565b93506107c883610764565b8060005b838110156107f95781516107e08882610783565b97506107eb8361079b565b9250506001810190506107cc565b5085935050505092915050565b6000602082019050818103600083015261082081846107a8565b905092915050565b7f4e487b7100000000000000000000000000000000000000000000000000000000600052601160045260246000fd5b60006108628261049d565b91507fffffffffffffffffffffffffffffffffffffffffffffffffffffffffffffffff820361089457610893610828565b5b600182019050919050565b600081519050919050565b600082825260208201905092915050565b60005b838110156108d95780820151818401526020810190506108be565b60008484015250505050565b60006108f08261089f565b6108fa81856108aa565b935061090a8185602086016108bb565b61091381610361565b840191505092915050565b6000610160820190508181036000830152610939818e6108e5565b9050610948602083018d610685565b610955604083018c610685565b8181036060830152610967818b6108e5565b9050818103608083015261097b818a6108e5565b905081810360a083015261098f81896108e5565b905081810360c08301526109a381886108e5565b90506109b260e0830187610685565b6109c0610100830186610685565b6109ce610120830185610685565b6109dc61014083018461065b565b9c9b50505050505050505050505056fe60806040526001600d60006101000a81548160ff0219169083151502179055507332be343b94f860124dc4fee278fdcbd38c102d88600d60016101000a81548173ffffffffffffffffffffffffffffffffffffffff021916908373ffffffffffffffffffffffffffffffffffffffff160217905550600d60019054906101000a900473ffffffffffffffffffffffffffffffffffffffff16600e60006101000a81548173ffffffffffffffffffffffffffffffffffffffff021916908373ffffffffffffffffffffffffffffffffffffffff1602179055503480156100e357600080fd5b506040516119c83803806119c8833981810160405281019061010591906103d8565b8a60029081610114919061076f565b5089600481905550886005819055508760069081610132919061076f565b508660079081610142919061076f565b508560089081610152919061076f565b508460039081610162919061076f565b508360098190555082600a8190555082600b81905550806000806101000a81548173ffffffffffffffffffffffffffffffffffffffff021916908373ffffffffffffffffffffffffffffffffffffffff160217905550816001819055505050505050505050505050610841565b6000604051905090565b600080fd5b600080fd5b600080fd5b600080fd5b6000601f19601f8301169050919050565b7f4e487b7100000000000000000000000000000000000000000000000000000000600052604160045260246000fd5b610236826101ed565b810181811067ffffffffffffffff82111715610255576102546101fe565b5b80604052505050565b60006102686101cf565b9050610274828261022d565b919050565b600067ffffffffffffffff821115610294576102936101fe565b5b61029d826101ed565b9050602081019050919050565b60005b838110156102c85780820151818401526020810190506102ad565b60008484015250505050565b60006102e76102e284610279565b61025e565b905082815260208101848484011115610303576103026101e8565b5b61030e8482856102aa565b509392505050565b600082601f83011261032b5761032a6101e3565b5b815161033b8482602086016102d4565b91505092915050565b6000819050919050565b61035781610344565b811461036257600080fd5b50565b6000815190506103748161034e565b92915050565b600073ffffffffffffffffffffffffffffffffffffffff82169050919050565b60006103a58261037a565b9050919050565b6103b58161039a565b81146103c057600080fd5b50565b6000815190506103d2816103ac565b92915050565b60008060008060008060008060008060006101608c8e0312156103fe576103fd6101d9565b5b60008c015167ffffffffffffffff81111561041c5761041b6101de565b5b6104288e828f01610316565b9b505060206104398e828f01610365565b9a5050604061044a8e828f01610365565b99505060608c015167ffffffffffffffff81111561046b5761046a6101de565b5b6104778e828f01610316565b98505060808c015167ffffffffffffffff811115610498576104976101de565b5b6104a48e828f01610316565b97505060a08c015167ffffffffffffffff8111156104c5576104c46101de565b5b6104d18e828f01610316565b96505060c08c015167ffffffffffffffff8111156104f2576104f16101de565b5b6104fe8e828f01610316565b95505060e061050f8e828f01610365565b9450506101006105218e828f01610365565b9350506101206105338e828f01610365565b9250506101406105458e828f016103c3565b9150509295989b509295989b9093969950565b600081519050919050565b7f4e487b7100000000000000000000000000000000000000000000000000000000600052602260045260246000fd5b600060028204905060018216806105aa57607f821691505b6020821081036105bd576105bc610563565b5b50919050565b60008190508160005260206000209050919050565b60006020601f8301049050919050565b600082821b905092915050565b6000600883026106257fffffffffffffffffffffffffffffffffffffffffffffffffffffffffffffffff826105e8565b61062f86836105e8565b95508019841693508086168417925050509392505050565b6000819050919050565b600061066c61066761066284610344565b610647565b610344565b9050919050565b6000819050919050565b61068683610651565b61069a61069282610673565b8484546105f5565b825550505050565b600090565b6106af6106a2565b6106ba81848461067d565b505050565b5b818110156106de576106d36000826106a7565b6001810190506106c0565b5050565b601f821115610723576106f4816105c3565b6106fd846105d8565b8101602085101561070c578190505b610720610718856105d8565b8301826106bf565b50505b505050565b600082821c905092915050565b600061074660001984600802610728565b1980831691505092915050565b600061075f8383610735565b9150826002028217905092915050565b61077882610558565b67ffffffffffffffff811115610791576107906101fe565b5b61079b8254610592565b6107a68282856106e2565b600060209050601f8311600181146107d957600084156107c7578287015190505b6107d18582610753565b865550610839565b601f1984166107e7866105c3565b60005b8281101561080f578489015182556001820191506020850194506020810190506107ea565b8683101561082c5784890151610828601f891682610735565b8355505b6001600288020188555050505b505050505050565b611178806108506000396000f3fe6080604052600436106101145760003560e01c8063516f279e116100a057806378e979251161006457806378e97925146103565780638da5cb5b14610381578063ec8a0655146103ac578063f3ccaac0146103d7578063fb6c95371461040257610114565b8063516f279e1461026c578063520198a81461029757806366bb8db4146102c25780636ec5de3d146103005780637284e4161461032b57610114565b806329adec14116100e757806329adec14146101c55780632f366637146101f05780633197cbb61461020c5780633548002a146102375780633ccfd60b1461026257610114565b806306fdde0314610119578063089cdd0c146101445780631209b1f61461016f57806322f3e2d41461019a575b600080fd5b34801561012557600080fd5b5061012e610419565b60405161013b9190610c1c565b60405180910390f35b34801561015057600080fd5b506101596104a7565b6040516101669190610c57565b60405180910390f35b34801561017b57600080fd5b506101846104ad565b6040516101919190610c57565b60405180910390f35b3480156101a657600080fd5b506101af6104b3565b6040516101bc9190610c8d565b60405180910390f35b3480156101d157600080fd5b506101da6104c6565b6040516101e79190610c1c565b60405180910390f35b61020a60048036038101906102059190610cd9565b610554565b005b34801561021857600080fd5b506102216107de565b60405161022e9190610c57565b60405180910390f35b34801561024357600080fd5b5061024c6107e4565b6040516102599190610c57565b60405180910390f35b61026a6107ea565b005b34801561027857600080fd5b50610281610853565b60405161028e9190610c1c565b60405180910390f35b3480156102a357600080fd5b506102ac6108e1565b6040516102b99190610c57565b60405180910390f35b3480156102ce57600080fd5b506102e960048036038101906102e49190610d64565b61092b565b6040516102f7929190610da0565b60405180910390f35b34801561030c57600080fd5b5061031561096f565b6040516103229190610dc9565b60405180910390f35b34801561033757600080fd5b50610340610995565b60405161034d9190610c1c565b60405180910390f35b34801561036257600080fd5b5061036b610a23565b6040516103789190610c57565b60405180910390f35b34801561038d57600080fd5b50610396610a29565b6040516103a39190610dc9565b60405180910390f35b3480156103b857600080fd5b506103c1610a4d565b6040516103ce9190610c57565b60405180910390f35b3480156103e357600080fd5b506103ec610a53565b6040516103f99190610c1c565b60405180910390f35b34801561040e57600080fd5b50610417610ae1565b005b6003805461042690610e13565b80601f016020809104026020016040519081016040528092919081815260200182805461045290610e13565b801561049f5780601f106104745761010080835404028352916020019161049f565b820191906000526020600020905b81548152906001019060200180831161048257829003601f168201915b505050505081565b60015481565b60095481565b600d60009054906101000a900460ff1681565b600280546104d390610e13565b80601f01602080910402602001604051908101604052809291908181526020018280546104ff90610e13565b801561054c5780601f106105215761010080835404028352916020019161054c565b820191906000526020600020905b81548152906001019060200180831161052f57829003601f168201915b505050505081565b600d60009054906101000a900460ff166105a3576040517f08c379a000000000000000000000000000000000000000000000000000000000815260040161059a90610eb6565b60405180910390fd5b806009546105b19190610f05565b3410156105f3576040517f08c379a00000000000000000000000000000000000000000000000000000000081526004016105ea90610f93565b60405180910390fd5b80600b541015610638576040517f08c379a000000000000000000000000000000000000000000000000000000000815260040161062f90610fff565b60405180910390fd5b80600b54610646919061101f565b600b8190555080600c60003373ffffffffffffffffffffffffffffffffffffffff1673ffffffffffffffffffffffffffffffffffffffff168152602001908152602001600020600101600082825461069e9190611053565b9250508190555033600c60003373ffffffffffffffffffffffffffffffffffffffff1673ffffffffffffffffffffffffffffffffffffffff16815260200190815260200160002060000160006101000a81548173ffffffffffffffffffffffffffffffffffffffff021916908373ffffffffffffffffffffffffffffffffffffffff160217905550600e60009054906101000a900473ffffffffffffffffffffffffffffffffffffffff1673ffffffffffffffffffffffffffffffffffffffff1663034c0c6130336040518363ffffffff1660e01b8152600401610783929190611087565b600060405180830381600087803b15801561079d57600080fd5b505af11580156107b1573d6000803e3d6000fd5b505050506000600b54036107db576000600d60006101000a81548160ff0219169083151502179055505b50565b60055481565b600b5481565b60008054906101000a900473ffffffffffffffffffffffffffffffffffffffff1673ffffffffffffffffffffffffffffffffffffffff166108fc479081150290604051600060405180830381858888f19350505050158015610850573d6000803e3d6000fd5b50565b6006805461086090610e13565b80601f016020809104026020016040519081016040528092919081815260200182805461088c90610e13565b80156108d95780601f106108ae576101008083540402835291602001916108d9565b820191906000526020600020905b8154815290600101906020018083116108bc57829003601f168201915b505050505081565b6000600c60003373ffffffffffffffffffffffffffffffffffffffff1673ffffffffffffffffffffffffffffffffffffffff16815260200190815260200160002060010154905090565b600c6020528060005260406000206000915090508060000160009054906101000a900473ffffffffffffffffffffffffffffffffffffffff16908060010154905082565b600d60019054906101000a900473ffffffffffffffffffffffffffffffffffffffff1681565b600780546109a290610e13565b80601f01602080910402602001604051908101604052809291908181526020018280546109ce90610e13565b8015610a1b5780601f106109f057610100808354040283529160200191610a1b565b820191906000526020600020905b8154815290600101906020018083116109fe57829003601f168201915b505050505081565b60045481565b60008054906101000a900473ffffffffffffffffffffffffffffffffffffffff1681565b600a5481565b60088054610a6090610e13565b80601f0160208091040260200160405190810160405280929190818152602001828054610a8c90610e13565b8015610ad95780601f10610aae57610100808354040283529160200191610ad9565b820191906000526020600020905b815481529060010190602001808311610abc57829003601f168201915b505050505081565b60008054906101000a900473ffffffffffffffffffffffffffffffffffffffff1673ffffffffffffffffffffffffffffffffffffffff163373ffffffffffffffffffffffffffffffffffffffff1614610b6f576040517f08c379a0000000000000000000000000000000000000000000000000000000008152600401610b6690611122565b60405180910390fd5b6000600d60006101000a81548160ff021916908315150217905550565b600081519050919050565b600082825260208201905092915050565b60005b83811015610bc6578082015181840152602081019050610bab565b60008484015250505050565b6000601f19601f8301169050919050565b6000610bee82610b8c565b610bf88185610b97565b9350610c08818560208601610ba8565b610c1181610bd2565b840191505092915050565b60006020820190508181036000830152610c368184610be3565b905092915050565b6000819050919050565b610c5181610c3e565b82525050565b6000602082019050610c6c6000830184610c48565b92915050565b60008115159050919050565b610c8781610c72565b82525050565b6000602082019050610ca26000830184610c7e565b92915050565b600080fd5b610cb681610c3e565b8114610cc157600080fd5b50565b600081359050610cd381610cad565b92915050565b600060208284031215610cef57610cee610ca8565b5b6000610cfd84828501610cc4565b91505092915050565b600073ffffffffffffffffffffffffffffffffffffffff82169050919050565b6000610d3182610d06565b9050919050565b610d4181610d26565b8114610d4c57600080fd5b50565b600081359050610d5e81610d38565b92915050565b600060208284031215610d7a57610d79610ca8565b5b6000610d8884828501610d4f565b91505092915050565b610d9a81610d26565b82525050565b6000604082019050610db56000830185610d91565b610dc26020830184610c48565b9392505050565b6000602082019050610dde6000830184610d91565b92915050565b7f4e487b7100000000000000000000000000000000000000000000000000000000600052602260045260246000fd5b60006002820490506001821680610e2b57607f821691505b602082108103610e3e57610e3d610de4565b5b50919050565b7f4576656e742068617320656974686572206265656e20656e646564206f72206360008201527f616e63656c6c6564000000000000000000000000000000000000000000000000602082015250565b6000610ea0602883610b97565b9150610eab82610e44565b604082019050919050565b60006020820190508181036000830152610ecf81610e93565b9050919050565b7f4e487b7100000000000000000000000000000000000000000000000000000000600052601160045260246000fd5b6000610f1082610c3e565b9150610f1b83610c3e565b9250828202610f2981610c3e565b91508282048414831517610f4057610f3f610ed6565b5b5092915050565b7f496e73756666696369656e742066756e64730000000000000000000000000000600082015250565b6000610f7d601283610b97565b9150610f8882610f47565b602082019050919050565b60006020820190508181036000830152610fac81610f70565b9050919050565b7f4e6f207469636b6574732072656d61696e696e67000000000000000000000000600082015250565b6000610fe9601483610b97565b9150610ff482610fb3565b602082019050919050565b6000602082019050818103600083015261101881610fdc565b9050919050565b600061102a82610c3e565b915061103583610c3e565b925082820390508181111561104d5761104c610ed6565b5b92915050565b600061105e82610c3e565b915061106983610c3e565b925082820190508082111561108157611080610ed6565b5b92915050565b600060408201905061109c6000830185610d91565b6110a96020830184610d91565b9392505050565b7f596f7520617265206e6f7420616c6c6f77656420746f206361727279206f757460008201527f207468697320616374696f6e0000000000000000000000000000000000000000602082015250565b600061110c602c83610b97565b9150611117826110b0565b604082019050919050565b6000602082019050818103600083015261113b816110ff565b905091905056fea2646970667358221220c8d8954d5d70dc8600dd58b1a29301e3b7dbc980456271ccf51cf5b8063ec61864736f6c634300081b0033a2646970667358221220352b952f8c20c1eaeac8b000282f0717d4600ce1654c3f3e096da13c9afeecb564736f6c634300081b0033",
  "linkReferences": {},
  "deployedLinkReferences": {}
}